:060000008831BF2D000055
:0800080083018031200077081C
:10001000A0007808A1007908A2007A08A300850151
:1000200091308400001D162811192D28850191306A
:100030008400801D1D2891192F288501923084008D
:10004000001C2428121831282008F7002108F80085
:100050002208F9002308FA00090080319B29803129
:1000600034298031A3290B0000345E34BC34E234DF
:1000700061343F34DD348334C2349C347E342034E4
:10008000A334FD341F3441349D34C33421347F34D0
:10009000FC34A23440341E345F340134E334BD34C4
:1000A0003E3460348234DC3423347D349F34C134B4
:1000B00042341C34FE34A034E134BF345D340334A4
:1000C0008034DE343C346234BE34E03402345C3498
:1000D000DF34813463343D347C342234C0349E3484
:1000E0001D344334A134FF3446341834FA34A43474
:1000F000273479349B34C5348434DA343834663464
:10010000E534BB3459340734DB348534673439344F
:10011000BA34E4340634583419344734A534FB3443
:1001200078342634C4349A3465343B34D934873433
:1001300004345A34B834E634A734F9341B34453423
:10014000C63498347A342434F834A63444341A3417
:100150009934C73425347B343A3464348634D83403
:100160005B340534E734B9348C34D23430346E34F3
:10017000ED34B33451340F344E341034F234AC34E3
:100180002F3471349334CD3411344F34AD34F334CF
:1001900070342E34CC349234D3348D346F343134C3
:1001A000B234EC340E345034AF34F13413344D34B3
:1001B000CE34903472342C346D343334D1348F34A3
:1001C0000C345234B034EE3432346C348E34D03497
:1001D00053340D34EF34B134F034AE344C34123483
:1001E0009134CF342D347334CA3494347634283473
:1001F000AB34F5341734493408345634B434EA3463
:1002000069343734D5348B3457340934EB34B5344E
:10021000363468348A34D4349534CB342934773442
:10022000F434AA3448341634E934B73455340B3432
:100230008834D63434346A342B3475349734C93422
:100240004A341434F634A83474342A34C834963416
:1002500015344B34A934F734B634E8340A34543402
:10026000D73489346B3435342400941A3A29F20196
:100270001419F2177208F20A2300A1002108803C29
:10028000031C75292108803C031D4B2924001108FB
:100290002300A0005529240015132000911D4E298C
:1002A0002400110815162300A000210B5C2920084A
:1002B0002000EC00742923002108013C0318752953
:1002C0002108803C031975290C3020006C0784003C
:1002D000203085000318850A2300200880002000B4
:1002E0006C0B73292414EC0A230021087F3C0318AB
:1002F000972920006C08EC0A0C3E84002030850011
:100300000318850A00082300A2002208A300240085
:1003100011082300230824009100151620009111D4
:10032000240014189129F801151AF80A2300200056
:100330009111803124282100A20A0319A30A200068
:100340001111803124282100A40A0319A50A2000D4
:1003500012108031242820308500C8308400000825
:100360000319BF290A30F800F701F70BB529F80B7C
:10037000B4295F30F700F70BBB29800BB2290800C6
:1003800022003C080739F7003C0CF800F80CF80C88
:100390001F30F80578083E07840000303F3D850097
:1003A000F801F80AF70AD529F80DF70BD429BD088A
:1003B0000319DD2978088004E029F8097808800508
:1003C0002000080022003C080739F7003C0CF80028
:1003D000F80CF80C1F30F80578083D078400003051
:1003E0003E3D85000008F800F70AF729F80CF70BE6
:1003F000F629200008002200300B022A623020007B
:10040000A50022003008023C031D0A2A62302000A9
:10041000A5002200200025082200BC00BD010130FB
:10042000BF00BE012000C02125082200BC00BD0184
:10043000BF018030BE002000C02119302200C8005A
:100440002000AB2125082200BC000130BD00BF0008
:10045000BE012000C02125082200BC00BD01BF0153
:100460008030BE002000C0214F30F700F70B362A45
:10047000392AA410950125082200BC000130BD00D6
:10048000BF018030BE002000C02125082200BC0032
:10049000BE01BD012000E2217818502AA41C3B2A8D
:1004A000A410950125082200BC000130BD00BF0149
:1004B0008030BE002000C02125082200BC00BE0103
:1004C000BD012000E221781C672AA41C522A2200C8
:1004D000B1013108043C031CE12AB2303107F800B5
:1004E0002030FA000318FA0A7808B8007A08B90030
:1004F000BB01BA013A08073C031CD72A2000A4100C
:10050000950125082200BC000130BD00BF018030EC
:10051000BE002000C02125082200BC00BE01BD0194
:100520002000E2217818962AA41C812A4F30F70077
:10053000F70B982A9B2A25082200BC000130BD0039
:10054000BF018030BE002000C02125082200BC0071
:10055000BE01BD012000E221781CD42A22003A0805
:10056000073CF8000130F700F8080319BA2AF735FC
:10057000F80BB72A7708BB042000A41095012508C2
:100580002200BC000130BD00BF018030BE00200051
:10059000C02125082200BC00BE01BD012000E221CF
:1005A000781CD42AA41CBF2A2200BA0A7A2A3B0843
:1005B000F800390885003808840078088000B10AFE
:1005C000692A3308320734073507B700360837027F
:1005D0000319F42A2000A41CEF2A2200F42A210087
:1005E0000E11043022008E06200026080B3C031D4D
:1005F000062BA801220032082000A700FA012200E1
:1006000034082000A9007A08AA00582B22003208DA
:100610002000A800220033082000A7002200340890
:100620007F39B8002000AA00220035082000A90068
:100630002200B41F592B20002A082200B9002000F4
:1006400029082200B800FF30BB00BA0039083B0679
:100650008039BD00B91F312BB809B909B80A03198F
:10066000B90ABB1F382BBA09BB09BA0A0319BB0A5E
:100670001030BC00F701FA01B90CB80C031C462B72
:100680003A08F7070318FA0A3B08FA07FA0CF70CBE
:10069000F90CF80CBC0B3C2BBD1F532BF809F909C6
:1006A000F80A0319F90A79082000AA007808A900B5
:1006B00022002000080010302200B400F701FA01E7
:1006C000B10CB00C031C6A2B3208F7070318FA0AA6
:1006D0003308FA07FA0CF70CF90CF80CB40B602B82
:1006E00020000800F801F901F701FA01220035089D
:1006F000031D7D2B34080319972B1030B60003100F
:10070000B20DB30DF70DFA0D35087A02031D8A2BD1
:1007100034087702031C932B3408F702031CFA03F6
:100720003508FA020314F80DF90DB60B7F2B2000E3
:10073000080021008C1022008C143530F700F70BD4
:100740009F2B21008C1022008C102000EF01EE0165
:1007500021000C1420000C18B32B0230F700F70B0B
:10076000AF2B0000A82B21000C1420000C1CC12B67
:10077000EE0A0319EF0A1A30F700F70BBD2B000041
:10078000B32B6F082200B10020006E082200B000D9
:10079000B3010A30B20020005B2379082200B100C7
:1007A0007808B0003108B3003008B200B50130302D
:1007B000B4002000722379082200B1007808B0004C
:1007C00011303007F8000030313DFA007A08F900A6
:1007D00088312000ED2E21008C1222008C1635303D
:1007E000F700F70BF12B21008C1222008C12210054
:1007F000A101A0010C1620000C1A062C0230F700F3
:10080000F70B002C00002100FA2B200021000C1611
:1008100020000C1E142CEE0A0319EF0A1A30F70000
:10082000F70B102C0000062C210021082200B1003B
:10083000210020082200B000B3010A30B2002000DD
:100840005B2379082200B1007808B0003108B300BA
:100850003008B200B5013030B400200072237908AE
:100860002200B1007808B00011303007F8000030E5
:10087000313DFA007A08F900883120000A2F241946
:100880004C2C25009301053093001E109E10210072
:100890001115C0308B0420008831222F70080C3CC9
:1008A000031D582C21002208F8002308F90020001D
:1008B0008831272FA419672C25009A0105309A004A
:1008C0001E119E1121001214C0308B0420008831AB
:1008D0003C2F70080C3C031D732C21002408F800E9
:1008E0002508F90020008831412F02302200C9027A
:1008F000031C872C20308500C930840000080319B0
:10090000872C852C832C842C0000800B822C2000CB
:10091000080021000C1122000C110230C300F43039
:10092000C900200075242200C30B8F2C21000C1558
:10093000BF30F700F70B9A2C9D2C0C152200C2013A
:1009400020000C1DA62C2200C20A2000023022002A
:10095000C300D430C900200075242200C30BA92C89
:100960004208F800200008002200C5014508073CA5
:10097000031CE42C21000C1122000C110530F7009F
:10098000F70BC02CC3360318C72C0C11C82C0C1540
:1009900021000C119F30F700F70BCC2CCF2C22003C
:1009A0004508073C031DDB2C440BDB2C21000C11FC
:1009B00022000C15E22C21000C150530F700F70B76
:1009C000DF2C2200C50AB62C2000080021000C11E3
:1009D00022000C110230F700F70BEC2C0000210074
:1009E0000C151F30F700F70BF32CF62C0C1500300C
:1009F00020000C190130F80008007508220041069B
:100A000020003320F800F5007508F80008000130D8
:100A10002200B100B201B300B401B501B701F50184
:100A200020008924220038107818381438181C2D1A
:100A30002000241E212D2200F3010030F800CA2DD1
:100A40002000F0302200C300C4012000B4242200A2
:100A5000B4012000E624780B312D02302200B400CE
:100A6000200078302200C90020007524E624780B8D
:100A70003C2D22003414200001302200C800200048
:100A8000AB2122003408033C031D482DB82DB42DA2
:100A9000B40803194F2D0310340CB600702D7308E1
:100AA00031020318632D5A3032078400203085004C
:100AB0000318850A00083305031D602D0030612DE1
:100AC0000130B6006B2D730831020319692D003017
:100AD0006A2D0130B600B608031D702D3108B5002F
:100AE000360B7D2D5A3032078400203085000318E4
:100AF000850A000833048000882D5A3032078400AC
:100B0000203085000318850A3308FF3A000580006D
:100B10003608BA0021000C1122000C113A0B982D56
:100B20000230F700F70B922D000021000C15220077
:100B30006930C9002000752421000C152200B10A7B
:100B40000310B30DB308031DB42D5A3032078400CF
:100B5000203085000318850A0008BA00C100200073
:100B6000FD242200B20AB30A3208073C0318282DDC
:100B70003108403C031CBE2DF301C82D3508F3009D
:100B800020002412F3080319241601302200B700B4
:100B90003708F8002000080021000C15F40120009F
:100BA0008924F808031D102EF30124120725780864
:100BB000F8080319102EF40A2200B0013008073C8F
:100BC000031C072E01307402F700F70DF70DF70D27
:100BD000F830F70577083007623EF8002030FA0059
:100BE0000318FA0A7808B1007A08B2005A303007C0
:100BF0008400203085000318850A0008B3003208FD
:100C000085003108840033088000B00ADE2D200002
:100C10000725F8080319102E7408083C0318DB2D6B
:100C20007408C1008831562F2200C301C201420856
:100C3000073C031C352E2000E624F80803192D2E4E
:100C40000130F70022004208F80003192A2EF73578
:100C5000F80B272E7708C304200078302200C90043
:100C6000200075242200C20A172E4308F800200035
:100C700008008E30F70022004908F8004808F90003
:100C8000FA01F808031D4E2E7908F800F901083022
:100C9000F702F808031D4E2EF701562E0310F81B1D
:100CA000552EF90DF80DF7034E2EF813200008000D
:100CB00022005D08E4006108E406E41F642E0311CD
:100CC0000310DD1B0314972E5D08E4006008E500A7
:100CD0005C08E5020319722EE41F972E0308013AFF
:100CE0008300972E6108E5005D08E50203197E2E5A
:100CF000E41F972E0308013A8300972E6208E5004F
:100D00005E08E50203198A2EE41F972E0308013AB4
:100D10008300972E6308E5005F08E5020319962E0D
:100D2000E41F972E0308013A8300972E031020003A
:100D300008008030831C9F2E2200E1062000220044
:100D4000EA01EB015D08E9006108E9065C080319A6
:100D5000902FE800F70060080319992FE8020319A3
:100D6000342F031CF12E6108EE00EE176208ED002F
:100D70006308EC00EB010310EE0CED0CEC0CEB0C3B
:100D8000E80BBA2EE91FC72E6A14AD2F6A1068103F
:100D90006A1620308500DF308400C22F6A12E91BFA
:100DA000DB2E681CE62EEE0CED0CEC0CEB0CF70ABF
:100DB0000319A82FE62EEE1BE92E0310EB0DEC0D08
:100DC000ED0DEE0DF7030319A82FDB2E6A17552F33
:100DD0006A135D08E900E91FEF2EEE17A12FEE134D
:100DE000A12F6008E800F7005C08E8025D08EE004B
:100DF000EE175E08ED005F08EC00EB010310EE0C4F
:100E0000ED0CEC0CEB0CE80BFD2EE91F0A2FEA149D
:100E1000AD2FEA106810EA1620308500E330840018
:100E2000C22FEA12E91B1E2F681C292FEE0CED0CB5
:100E3000EC0CEB0CF70A0319A82F292FEE1B2C2F13
:100E40000310EB0DEC0DED0DEE0DF7030319A82FBC
:100E50001E2FEA17552FEA136108E900E91F322F08
:100E6000EE17A12FEE13A12F6108EE00EE17620816
:100E7000ED006308EC00E91F412FEE136A15AD2F5A
:100E80006A11EB01681020308500DF308400C22F2A
:100E9000E91B6B2F5D08E900681C552FEE0CED0C6B
:100EA000EC0CEB0CF70A0319A82FEB1F662FEC0ACA
:100EB000031D662FED0A031D662FEE0A031D662F24
:100EC000EE0CED0CEC0CF70A0319A82F6A1BE82EA8
:100ED000EA1B2B2F8A2F8030EE06EE1F732FAD2FCB
:100EE0006108E900802F5D08E900EE08031D802FEE
:100EF000ED08031D802FEC08031D802FF701A12FA3
:100F0000EE1B8A2F0310EB0DEC0DED0DEE0DF70B24
:100F1000802FA82FE91F8E2FEE17A12FEE13A12FE0
:100F20006008F7006108EE006208ED006308EC005D
:100F3000A12F5C08F7005D08EE005E08ED005F0879
:100F4000EC006E08F8006D08F9006C08FA00DE2F5E
:100F5000F701F801F901FA01DE2FEB01EC09ED09C7
:100F6000EE09EB09EB0A031DBB2FEC0A031DBB2F97
:100F7000ED0A0319EE0A6A18C62EEA18092F6A1933
:100F8000402F702F0008EC07031CCC2FED0A031D27
:100F9000CC2FEE0A031968141100ED07031CD32FA0
:100FA000EE0A031968141100801F803AEE07031837
:100FB00068146A1ACE2EEA1A112F482F2000080052
:1010000022005C080319C628E80060080319C628F6
:10101000E802031C10287F30E8070318C6281628AA
:101020008130E802031CC6280319C6286808F700A7
:10103000F801F901FA01E7015D08E600E6175E082C
:10104000E5005F08E4001930E8006308E4020318D3
:1010500039280130E50203183928E6020318392837
:10106000E70203183928E70AE60AE50A6308E407F5
:101070006B286208E502031854280130E6020318C1
:101080005428E70203185428E70AE60A6208E5072D
:101090006308E407031C6B28E50A031D6B28E60AB6
:1010A000031D6B28E70A6B2861088038E6020318E5
:1010B0006A280130E70203186A28E70A61088038C5
:1010C000E6076208E507031C4828E60A031D4828CE
:1010D000E70A48287A14E80B6E2879280310E40DF3
:1010E000E50DE60DE70D0310FA0DF90DF80DE90D0C
:1010F0002528691C81280310F80CF90CFA0CE90C5E
:101100008428F7030319C628E91BAD280310E40D52
:10111000E50DE60DE70D6308E40203189928013098
:10112000E50203189928E60203189928E702031C30
:10113000BC286208E5020318A4280130E60203185F
:10114000A428E702031CBC2861088038E6020318C3
:10115000AD280130E702031CBC28FA0A031DBC2895
:10116000F90A031DBC28F80A031DBC28F70A031955
:10117000C628F80CF90CFA0C5D08E8006108E806CE
:10118000E81FC428F817CA28F813CA28F701F8017D
:10119000F901FA01200008008E30F700220048080B
:1011A000F7024908F9004A08F800F917F708031987
:1011B000E4280310F908031DE028F8080319E428BF
:1011C000F90CF80CF70BD928C91FEB28F809F90915
:1011D000F80A0319F90A2000080022004808031938
:1011E0005E29D2004C0803195E29D2070318FF2894
:1011F0007F30D202031C5E2903195E290329813046
:10120000D20703185E295208F700F801F901FA0124
:101210004908D600D6174A08D5004B08D400183024
:10122000D200D301541C2C294F08FA07031C1E2995
:10123000F90A031D1E29F80A0319D3174E08F907E6
:10124000031C2529F80A0319D3174D08CA00CA1729
:101250004A08F8070318D317D30DF80CF90CFA0C49
:10126000D60CD50CD40C0310D20B11290130F70782
:1012700003185E29F81B4329D60DFA0DF90DF80D58
:10128000F70303195E29D61F5429FA0A031D5429AE
:10129000F90A031D5429F80A031D5429F80CF90C06
:1012A000FA0CF70A03195E294908D3004D08D30642
:1012B000D31F5C29F8176229F8136229F701F80196
:1012C000F901FA0120000800803189248831F808EA
:1012D000031D4B2BCC302200C300C4018031200001
:1012E000B424883144302200C3000130C40080316E
:1012F0002000B424883103302200C000FA30C80036
:1013000080312000AB2188312200C00B7E29803142
:101310002000892488312200B101740831020318A9
:101320004A2B3108C0008031200089248831F80818
:1013300003199D290030F800C72955302200C30049
:10134000C40180312000B42488312200C101410849
:10135000073C031CC429400DF700F70DF70DF830CA
:10136000F70577084107623E8400203085000318A6
:10137000850A0008C200C300C40180312000B424E3
:1013800088312200C10AA7290130F8002000F8089E
:101390000319472BBE302200C300C4018031200056
:1013A000B4248831F5012200B0013008073C031C49
:1013B000002AB6303007F8002030FA000318FA0A85
:1013C0007808C0007A08C1008031200014268831D6
:1013D0002200410885004008840078088000B6306B
:1013E00030078400203085000318850A0008C000FB
:1013F000C10080312000FD2488312200B00AD529A7
:10140000803120001426883178082200BE00803107
:10141000200089248831750822003E02031D412BDB
:10142000F6013708FA003608C8003708C9008031CD
:101430002000392688317A082200B5007908B400E6
:101440007808B3007708B200DF01DE01DD01DC01BE
:101450003508E3003408E2003308E1003208E00018
:1014600080312000582688310318382A031D6E2A3F
:10147000831022003508DF003408DE003308DD0069
:101480003208DC00E301E201E1018230E00080315A
:101490002000992688317A082200C3007908C2000A
:1014A0007808C1007708C0004308DF004208DE006A
:1014B0004108DD004008DC00E301E201E101833086
:1014C000E000200000207A082200B5007908B4006E
:1014D0007808B3007708B200A22A20008314220003
:1014E0003508DF003408DE003308DD003208DC0098
:1014F000E301E201E1018230E00080312000992621
:1015000088317A082200C3007908C2007808C10037
:101510007708C0004308DF004208DE004108DD0014
:101520004008DC00E301E201E1018330E00020003B
:1015300000207A082200B5007908B4007808B300CA
:101540007708B2000310310D223E84002030850060
:101550000318850A3508CB003408CA003308C900CF
:101560003208C8002000CC20780880000310220038
:10157000310D163E013E0C3E8400203085000318DC
:10158000850A3508CB003408CA003308C900320880
:10159000C800CF01CE014830CD008530CC002000FE
:1015A000ED207A082200C5007908C4007808C3003D
:1015B0007708C2003508CB003408CA003308C900D8
:1015C0003208C8002000CC2078082200C700643010
:1015D000C800F701F801470803104818F707F70C8F
:1015E000F80CC818F707F70CF80C4819F707F70CB0
:1015F000F80CC819F707F70CF80C481AF707F70C9E
:10160000F80CC81AF707F70CF80C481BF707F70C8B
:10161000F80CC81BF707F70CF80C7808C901C800CC
:10162000803120003926883105082200C7000408CF
:10163000C60083144508DF004408DE004308DD00CF
:101640004208DC007A08E3007908E2007808E1004B
:101650007708E00080312000992688312200470871
:101660008500460884007A08CB007908CA0078080B
:10167000C9007708C8002000CC2078088000472BDC
:101680002200F60A76080A3C031C01002000220012
:10169000B10A8D2920008831582F21008E11220097
:1016A0008E110230BA008C30C900803120007524C0
:1016B00088312200BA0B532B21009D146A30F700A9
:1016C000F70B602B00008E1122008E1521009D1853
:1016D000672B1C08FA001B082200B8007A08B90022
:1016E0000930C80080312000AB218831043022004D
:1016F000BA00AA30C9008031200075248831220048
:10170000BA0B792B3808F8003908F90020000800D6
:101710002200B6010530B70021008E1122008E157F
:1017200021001E169E161E139E171D141E109E10BD
:10173000043023008C0000308E000830F8002100B7
:101740001D08833978049D0001302200C8008031D3
:101750002000AB2188314D2379082200B1007808A0
:10176000B00020004D2379082200B3007808B200B1
:1017700030083202B8003108333BB900FA003908AA
:10178000B5003808B4003308B1003208B000B5081D
:10179000031DCE2B3408143C0318D32BB60A37088C
:1017A0003602031CB12B3208F8003308F9008831E7
:1017B00020005F2F2200BF01BE01BD01BC01C3019B
:1017C000C201C101C0019030980080309900210011
:1017D0001E169E161E139E171D141E109E100030FE
:1017E00023008C0004308E0021001E109E10183043
:1017F000F8001D08833978049D0001302200C800DC
:1018000080312000AB2188312200C501C401450888
:101810003102031CE02C031D112C30084402031874
:10182000E02C21009D149D18132C1C08FA001B08A5
:101830002200B2007A08B3003308C9003208C80099
:10184000803120003926883183147A082200DF0095
:101850007908DE007808DD007708DC002508E30061
:101860002408E2002308E1002208E0008031200083
:10187000992688317A082200CB007908CA007808B6
:10188000C9007708C8004B08DF004A08DE00490895
:10189000DD004808DC00E301E201E1018930E000FD
:1018A00020000020831022002508DF002408DE002D
:1018B0002308DD002208DC007A08E3007908E20052
:1018C0007808E1007708E00080312000992688310F
:1018D0007A082200A5007908A4007808A3007708F8
:1018E000A2003308C9003208C80080312000392620
:1018F000883183147A082200DF007908DE00780836
:10190000DD007708DC002508E3002408E200230856
:10191000E1002208E00080312000992688317A0811
:101920002200B7007908B6007808B5007708B4003F
:101930003708CB003608CA003508C9003408C8008B
:101940003708CF003608CE003508CD003408CC006B
:101950002000ED207A082200BB007908BA00780840
:10196000B9007708B80083103F08DF003E08DE00AA
:101970003D08DD003C08DC003B08E3003A08E200DB
:101980003908E1003808E0008031200099268831CC
:101990007A082200BF007908BE007808BD007708E9
:1019A000BC000230C800FA30C90080312000752424
:1019B00088312200C80BD32CC40A0319C50A072C8E
:1019C0003108C9003008C80080312000392688312C
:1019D00022003F08DF003E08DE003D08DD003C0835
:1019E000DC007A08E3007908E2007808E100770873
:1019F000E000200000207A082200CB007908CA000D
:101A00007808C9007708C8004B08CF004A08CE0004
:101A10004908CD004808CC004F08DF004E08DE0022
:101A20004D08DD004C08DC00E301E201E101E001CA
:101A300080312000582688310318202D031D252DC4
:101A4000F701F801F901FA01A92D22004F08D3008E
:101A50004E08D2004D08D1004C08D0002030D900EB
:101A6000D030D80058088400590885000008DF01EC
:101A7000DE007F30DE070030DF3D03105F0CFA0030
:101A80005E0CF900DE0059088500580884005E08E5
:101A900080005308D7005208D6005108D5005008DE
:101AA000D4004F08DF004E08DE004D08DD004C0872
:101AB000DC005308E3005208E2005108E10050083E
:101AC000E00020000020831022005308DF005208AD
:101AD000DE005108DD005008DC007A08E3007908D8
:101AE000E2007808E1007708E000803120009926C4
:101AF00088317A082200D3007908D2007808D10012
:101B00007708D000580884005908850080035708DA
:101B1000DF005608DE005508DD005408DC005308DD
:101B2000E3005208E2005108E1005008E000803173
:101B300020005826883103199F2D2200492D2200AC
:101B40005408F7005508F8005608F9005708FA003D
:101B500020007A082200C3007908C2007808C1007A
:101B60007708C0004308CB004208CA004108C900FA
:101B70004008C8002000CC2079088831762F5530E5
:101B80003C008F00AA308F000F101030A0001130E1
:101B9000A10010303D00A0001130A10055303C00E4
:101BA0008F00AA308F000F14F030210099000E1220
:101BB00022000E16200024106230A5000B30A60073
:101BC00021000E148E142400171097109711C030A6
:101BD0009200FF30930036309500161496172000BF
:101BE000EC010430ED00EF01EE012100A101A001A4
:101BF0000C30F000200024112100A301A2012000DC
:101C0000A4112100A501A401A901A801A701A60111
:101C10000330F200F30120002412F6012200A50196
:101C2000A401A3018830A20023008C018E012200B0
:101C30009201910194019301222E403440342C34BE
:101C4000003400340E3085001D30840085171200EA
:101C5000F700003A03193C2E1200F800F81B342E4E
:101C60000F39870012008600781B1200781F1200BF
:101C70001E00F70B362E272EAB01AA01AE01210064
:101C80009115C0308B0405302000AC0001302200DB
:101C9000C80080312000AB21883122002B08FA00D7
:101CA0002A08AA0A0319AB0AB0007A08B100300862
:101CB000F43C031D642E310B642E21008C12203065
:101CC00022008C06AB01AA012000241C462E241001
:101CD00021008C12203022008C0620002D08F100FB
:101CE00071080B3C0319782E7108163C031DA62EB3
:101CF00071080B3C031D7F2E0B30A600812E163081
:101D0000A6002100911101302200B0008031200096
:101D1000FB2188312100911571080B3C031D982E81
:101D200020002908B500B6012708B700B801210036
:101D30007108163C031DA72E20002A08B500FA01E1
:101D40002908B6002808B7002708B8002100710844
:101D5000703C0319AF2E7108DE3C031DE12E7108A3
:101D6000703C031DB82E0B302000A600BB2E2100B6
:101D700016302000A6002100911102302200B00090
:101D800080312000FB218831210091157108703CC1
:101D9000031DD22E20002908D200D3012708D40029
:101DA000D50121007108DE3C031DE12E20002A0828
:101DB000D200FA012908D3002808D4002708D5004A
:101DC00021007108043C031DFE2E04302000ED00AC
:101DD0002100911180312000992B8831790822004F
:101DE000A7007808A60021009115220026082000EF
:101DF000B900220027082000BA0021007108053C24
:101E0000031D1B2F04302000ED00210091118031B3
:101E10002000EB2B883179082200A7007808A60063
:101E200021009115220026082000BB00220027086F
:101E30002000BC00210071080C3C031D352F8031AF
:101E400020003F2C88310C30F00080314E2C88313E
:101E500079082200A9007808A80028082000BD0001
:101E6000220029082000BE00210071080D3C031D3E
:101E70004F2F803120005A2C88310C30F0008031F7
:101E8000692C883179082200A9007808A800280860
:101E90002000BF00220029082000C0002100710896
:101EA0000E3C031D592F80312000CC2D8831642930
:101EB000210071080F3C031D6C2F2000882B79082E
:101EC0002200AD007808AC002C082000B3002200EE
:101ED0002D082000B40021007108103C031D832F41
:101EE0002200B101C830B0002000DA2B79082200AE
:101EF000AD007808AC002C082000B10022002D08AD
:101F00002000B20021008C12203022008C0620001C
:041F1000462E6300F6
:020000040001F9
:04000E00843FFB3AF6
:00000001FF
;PIC16F1705
;CRC=271D  CREATED="30-May-17 10:58"
