:060000009031A22800006F
:0800080083018031200077081C
:10001000A0007808A1007908A2007A08A300850151
:1000200091308400001D162811192D28850191306A
:100030008400801D1D2891192F288501923084008D
:10004000001C2428121831282008F7002108F80085
:100050002208F9002308FA00090080319B29803129
:1000600034298031A3290B0000345E34BC34E234DF
:1000700061343F34DD348334C2349C347E342034E4
:10008000A334FD341F3441349D34C33421347F34D0
:10009000FC34A23440341E345F340134E334BD34C4
:1000A0003E3460348234DC3423347D349F34C134B4
:1000B00042341C34FE34A034E134BF345D340334A4
:1000C0008034DE343C346234BE34E03402345C3498
:1000D000DF34813463343D347C342234C0349E3484
:1000E0001D344334A134FF3446341834FA34A43474
:1000F000273479349B34C5348434DA343834663464
:10010000E534BB3459340734DB348534673439344F
:10011000BA34E4340634583419344734A534FB3443
:1001200078342634C4349A3465343B34D934873433
:1001300004345A34B834E634A734F9341B34453423
:10014000C63498347A342434F834A63444341A3417
:100150009934C73425347B343A3464348634D83403
:100160005B340534E734B9348C34D23430346E34F3
:10017000ED34B33451340F344E341034F234AC34E3
:100180002F3471349334CD3411344F34AD34F334CF
:1001900070342E34CC349234D3348D346F343134C3
:1001A000B234EC340E345034AF34F13413344D34B3
:1001B000CE34903472342C346D343334D1348F34A3
:1001C0000C345234B034EE3432346C348E34D03497
:1001D00053340D34EF34B134F034AE344C34123483
:1001E0009134CF342D347334CA3494347634283473
:1001F000AB34F5341734493408345634B434EA3463
:1002000069343734D5348B3457340934EB34B5344E
:10021000363468348A34D4349534CB342934773442
:10022000F434AA3448341634E934B73455340B3432
:100230008834D63434346A342B3475349734C93422
:100240004A341434F634A83474342A34C834963416
:1002500015344B34A934F734B634E8340A34543402
:10026000D73489346B3435342400941A3A29F30195
:100270001419F3177308F30A2300AD002D08803C0E
:10028000031C75292D08803C031D4B2924001108EF
:100290002300AC005529240015132000911D4E2980
:1002A0002400110815162300AC002D0B5C292C0826
:1002B0002000EC00742923002D08013C0318752947
:1002C0002D08803C031975290C3020006C07840030
:1002D000203085000318850A23002C0880002000A8
:1002E0006C0B73292414EC0A23002D087F3C03189F
:1002F000972920006C08EC0A0C3E84002030850011
:100300000318850A00082300AE002E08AF00240061
:10031000110823002F0824009100151620009111C8
:10032000240014189129F801151AF80A2300200056
:100330009111803124282100A20A0319A30A200068
:100340001111803124282100A40A0319A50A2000D4
:1003500012108031242820308500D4308400000819
:100360000319BF290A30F800F701F70BB529F80B7C
:10037000B4295F30F700F70BBB29800BB2290800C6
:10038000220048080739F700480CF800F80CF80C70
:100390001F30F80578084A07840000304B3D85007F
:1003A000F801F80AF70AD529F80DF70BD429C9087E
:1003B0000319DD2978088004E029F8097808800508
:1003C00020000800220048080739F700480CF80010
:1003D000F80CF80C1F30F805780849078400003045
:1003E0004A3D85000008F800F70AF729F80CF70BDA
:1003F000F6292000080022003C0B022A623020006F
:10040000A50022003C08023C031D0A2A623020009D
:10041000A5002200200025082200C800C9010130E3
:10042000CB00CA012000C02125082200C800C90154
:10043000CB018030CA002000C02119302200D40036
:100440002000AB2125082200C8000130C900CB00E4
:10045000CA012000C02125082200C800C901CB0123
:100460008030CA002000C0214F30F700F70B362A39
:10047000392AA410950125082200C8000130C900BE
:10048000CB018030CA002000C02125082200C8000E
:10049000CA01C9012000E2217818502AA41C3B2A75
:1004A000A410950125082200C8000130C900CB0125
:1004B0008030CA002000C02125082200C800CA01DF
:1004C000C9012000E221781C672AA41C522A2200BC
:1004D000BD013D08043C031CE12ABE303D07F80085
:1004E0002030FA000318FA0A7808C4007A08C50018
:1004F000C701C6014608073C031CD72A2000A410E8
:10050000950125082200C8000130C900CB018030C8
:10051000CA002000C02125082200C800CA01C90164
:100520002000E2217818962AA41C812A4F30F70077
:10053000F70B982A9B2A25082200C8000130C90021
:10054000CB018030CA002000C02125082200C8004D
:10055000CA01C9012000E221781CD42A22004608E1
:10056000073CF8000130F700F8080319BA2AF735FC
:10057000F80BB72A7708C7042000A41095012508B6
:100580002200C8000130C900CB018030CA00200021
:10059000C02125082200C800CA01C9012000E221AB
:1005A000781CD42AA41CBF2A2200C60A7A2A47082B
:1005B000F800450885004408840078088000BD0ADA
:1005C000692A3F083E0740074107C300420843022B
:1005D0000319F42A2000A41CEF2A2200F42A210087
:1005E0000E11043022008E06200026080B3C031D4D
:1005F000062BA80122003E082000A700FA012200D5
:1006000040082000A9007A08AA00582B22003E08C2
:100610002000A80022003F082000A7002200400878
:100620007F39C4002000AA00220041082000A90050
:100630002200C01F592B20002A082200C5002000DC
:1006400029082200C400FF30C700C600450847063D
:100650008039C900C51F312BC409C509C40A031953
:10066000C50AC71F382BC609C709C60A0319C70A16
:100670001030C800F701FA01C50CC40C031C462B4E
:100680004608F7070318FA0A4708FA07FA0CF70CA6
:10069000F90CF80CC80B3C2BC91F532BF809F909AE
:1006A000F80A0319F90A79082000AA007808A900B5
:1006B00022002000080010302200C000F701FA01DB
:1006C000BD0CBC0C031C6A2B3E08F7070318FA0A82
:1006D0003F08FA07FA0CF70CF90CF80CC00B602B6A
:1006E00020000800F801F901F701FA012200410891
:1006F000031D7D2B40080319972B1030C2000310F7
:10070000BE0DBF0DF70DFA0D41087A02031D8A2BAD
:1007100040087702031C932B4008F702031CFA03DE
:100720004108FA020314F80DF90DC20B7F2B2000CB
:10073000080021008C1022008C143530F700F70BD4
:100740009F2B21008C1022008C102000EF01EE0165
:1007500021000C1420000C18B32B0230F700F70B0B
:10076000AF2B0000A82B21000C1420000C1CC12B67
:10077000EE0A0319EF0A1A30F700F70BBD2B000041
:10078000B32B6F082200BD0020006E082200BC00C1
:10079000BF010A30BE0020005B2379082200BD00A3
:1007A0007808BC003D08BF003C08BE00C1013030E5
:1007B000C0002000722379082200BD007808BC0028
:1007C00011303C07F80000303D3DFA007A08F9008E
:1007D00090312000E12921008C1222008C16353046
:1007E000F700F70BF12B21008C1222008C12210054
:1007F000A101A0010C1620000C1A062C0230F700F3
:10080000F70B002C00002100FA2B200021000C1611
:1008100020000C1E142CEE0A0319EF0A1A30F70000
:10082000F70B102C0000062C210021082200BD002F
:10083000210020082200BC00BF010A30BE002000B9
:100840005B2379082200BD007808BC003D08BF008A
:100850003C08BE00C1013030C0002000722379087E
:100860002200BD007808BC0011303C07F8000030C1
:100870003D3DFA007A08F90090312000FE29241944
:100880004C2C25009301053093001E109E10210072
:100890001115C0308B0420009031162A70080C3CD2
:1008A000031D582C21002208F8002308F90020001D
:1008B00090311B2AA419672C25009A0105309A0053
:1008C0001E119E1121001214C0308B0420009031A3
:1008D000302A70080C3C031D732C21002408F800FA
:1008E0002508F90020009031352A02302200D50277
:1008F000031C872C20308500D530840000080319A4
:10090000872C852C832C842C0000800B822C2000CB
:10091000080021000C1122000C110230D300F43029
:10092000D500200075242200D30B8F2C21000C153C
:10093000BF30F700F70B9A2C9D2C0C152200D2012A
:1009400020000C1DA62C2200D20A2000023022001A
:10095000D300D430D500200075242200D30BA92C5D
:100960005208F800200008002200D5015508073C75
:10097000031CE42C21000C1122000C110530F7009F
:10098000F70BC02CD3360318C72C0C11C82C0C1530
:1009900021000C119F30F700F70BCC2CCF2C22003C
:1009A0005508073C031DDB2C540BDB2C21000C11DC
:1009B00022000C15E22C21000C150530F700F70B76
:1009C000DF2C2200D50AB62C2000080021000C11D3
:1009D00022000C110230F700F70BEC2C0000210074
:1009E0000C151F30F700F70BF32CF62C0C1500300C
:1009F00020000C190130F80008007608220051068A
:100A000020003320F800F6007608F80008000130D6
:100A10002200BD00BE01BF00C001C101C301F6013B
:100A200020008924220044107818441444181C2DF6
:100A30002000241E212D2200F4010030F800CA2DD0
:100A40002000F0302200D300D4012000B424220082
:100A5000C0012000E624780B312D02302200C000B6
:100A6000200078302200D50020007524E624780B81
:100A70003C2D22004014200001302200D400200030
:100A8000AB2122004008033C031D482DB82DB42D96
:100A9000C00803194F2D0310400CC200702D7408BC
:100AA0003D020318632D62303E078400203085002C
:100AB0000318850A00083F05031D602D0030612DD5
:100AC0000130C2006B2D74083D020319692D0030FE
:100AD0006A2D0130C200C208031D702D3D08C100FF
:100AE000420B7D2D62303E078400203085000318C4
:100AF000850A00083F048000882D62303E0784008C
:100B0000203085000318850A3F08FF3A0005800061
:100B10004208C60021000C1122000C11460B982D32
:100B20000230F700F70B922D000021000C15220077
:100B30006930D5002000752421000C152200BD0A63
:100B40000310BF0DBF08031DB42D62303E078400A3
:100B5000203085000318850A0008C600D100200057
:100B6000FD242200BE0ABF0A3E08073C0318282DB8
:100B70003D08403C031CBE2DF401C82D4108F40083
:100B800020002412F4080319241601302200C300A7
:100B90004308F8002000080021000C15F501200092
:100BA0008924F808031D102EF40124120725780863
:100BB000F8080319102EF50A2200BC013C08073C76
:100BC000031C072E01307502F700F70DF70DF70D26
:100BD000F830F70577083C076A3EF8002030FA0045
:100BE0000318FA0A7808BD007A08BE0062303C0794
:100BF0008400203085000318850A0008BF003E08E5
:100C000085003D0884003F088000BC0ADE2D2000DE
:100C10000725F8080319102E7508083C0318DB2D6A
:100C20007508C10090314A2A2200D301D20152082E
:100C3000073C031C352E2000E624F80803192D2E4E
:100C40000130F70022005208F80003192A2EF73568
:100C5000F80B272E7708D304200078302200D50027
:100C6000200075242200D20A172E5308F800200015
:100C700008008E30F70022005708F8005608F900E7
:100C8000FA01F808031D4E2E7908F800F901083022
:100C9000F702F808031D4E2EF701562E0310F81B1D
:100CA000552EF90DF80DF7034E2EF813200008000D
:100CB000220069082300A00022006D082300A0067E
:100CC000A01F692E031103102200E91B0314BF2E7D
:100CD0002300220069082300A00022006C082300E2
:100CE000A100220068082300A1020319812EA01B85
:100CF0007B2E2200BF2E0308013A83002200BF2E64
:100D0000230022006D082300A100220069082300AF
:100D1000A1020319952EA01B8F2E2200BF2E0308BF
:100D2000013A83002200BF2E230022006E08230018
:100D3000A10022006A082300A1020319A92EA01B0A
:100D4000A32E2200BF2E0308013A83002200BF2EEB
:100D5000230022006F082300A10022006B0823005B
:100D6000A1020319BD2EA01BB72E2200BF2E03081F
:100D7000013A83002200BF2E23000310220020002E
:100D80000800220068080319B42F2300A6002200DF
:100D90006C080319B42F2300A602031CD62E7F3043
:100DA000A607031CD52E2200B42FE02E8130A60208
:100DB0000318DC2E2200B42F031DE02E2200B42FD6
:100DC0002608F700F801F901FA01A50122006908D7
:100DD0002300A400A41722006A082300A300220015
:100DE0006B082300A2001930A60022006F08230020
:100DF000A20203180D2F0130A30203180D2FA40225
:100E000003180D2FA50203180D2FA50AA40AA30A83
:100E100022006F082300A2074B2F22006E08230038
:100E2000A30203182E2F0130A40203182E2FA502AF
:100E300003182E2FA50AA40A22006E082300A30778
:100E400022006F082300A207031C4B2FA30A031DD7
:100E50004B2FA40A031D4B2FA50A4B2F22006D0810
:100E600080382300A40203184A2F0130A50203187A
:100E70004A2FA50A22006D0880382300A40722000B
:100E80006E082300A307031C202FA40A031D202F94
:100E9000A50A202F7A14A60B4E2F592F0310A20D4E
:100EA000A30DA40DA50D0310FA0DF90DF80DA70D56
:100EB000F52E271C612F0310F80CF90CFA0CA70C67
:100EC000652FF70B652F2200B42FA71B942F03105B
:100ED000A20DA30DA40DA50D22006F082300A202F0
:100EE00003187C2F0130A30203187C2FA4020318DF
:100EF0007C2FA502031CA52F22006E082300A3024D
:100F00000318892F0130A4020318892FA502031C9E
:100F1000A52F22006D0880382300A4020318942F07
:100F20000130A502031CA52FFA0A031DA52FF90AFB
:100F3000031DA52FF80A031DA52FF70A031DA22FD5
:100F40002200B42FF80CF90CFA0C220069082300D7
:100F5000A60022006D082300A606A61FB12FF817D1
:100F6000B92FF813B92F2200F701F801F901FA019E
:100F70002300200008008E30F70022005808F702F6
:100F80005908F9005A08F800F917F7080319D32F80
:100F90000310F908031DCF2FF8080319D32FF90CFC
:100FA000F80CF70BC82FD91FDA2FF809F909F80A3E
:100FB0000319F90A2000080064302200D50020003F
:100FC0007524080021008C1022008C140230F700D8
:100FD000F70BE82F000021008C1022008C1002304B
:0C0FE000F700F70BF12F000020000800C4
:101000008030831C06282200ED0620002300A20168
:10101000A301220069082300A10022006D0823001B
:10102000A10622006808031920292300A000F70068
:1010300022006C0803192F292300A0020319B728E6
:10104000031C682822006D082300A600A6172200B2
:101050006E082300A50022006F082300A400A3014E
:101060000310A60CA50CA40CA30CA00B2F28A11FE9
:101070003C282214482922102010221620308500F6
:10108000EB3084005D292212A11B5028201C5B2814
:10109000A60CA50CA40CA30CF70A031943295B2882
:1010A000A61B5E280310A30DA40DA50DA60DF70326
:1010B0000319432950282217E02822132200690827
:1010C0002300A100A11F6628A6173C29A6133C29CE
:1010D00022006C082300A000F7002200680823000B
:1010E000A002220069082300A600A61722006A08B1
:1010F0002300A50022006B082300A400A301031015
:10110000A60CA50CA40CA30CA00B7E28A11F8B2859
:10111000A2144829A2102010A21620308500EF301A
:1011200084005D29A212A11B9F28201CAA28A60CBE
:10113000A50CA40CA30CF70A03194329AA28A61B83
:10114000AD280310A30DA40DA50DA60DF7030319DB
:1011500043299F28A217E028A21322006D0823002C
:10116000A100A11FB528A6173C29A6133C292200DF
:101170006D082300A600A61722006E082300A50014
:1011800022006F082300A400A11FCA28A61322155D
:1011900048292211A301201020308500EB30840063
:1011A0005D29A11BF628220069082300A100201C4C
:1011B000E028A60CA50CA40CA30CF70A03194329DC
:1011C000A31FF128A40A031DF128A50A031DF12875
:1011D000A60A031DF128A60CA50CA40CF70A0319F6
:1011E0004329221B5D28A21BAC2819298030A606A2
:1011F000A61F0029482922006D082300A1000F29FD
:10120000220069082300A100A608031D0F29A508D4
:10121000031D0F29A408031D0F29F7013C29A61B54
:1012200019290310A30DA40DA50DA60DF70B0F2969
:101230004329A11F1D29A6173C29A6133C292200DA
:101240006C08F7006D082300A60022006E0823003A
:10125000A50022006F082300A4003C292200680892
:10126000F70069082300A60022006A082300A500F1
:1012700022006B082300A4002608F8002508F900C6
:101280002408FA007929F701F801F901FA0179290E
:10129000A301A409A509A609A309A30A031D5629A8
:1012A000A40A031D5629A50A0319A60A22183B28D9
:1012B000A2188A282219C928FB280008A407031CA1
:1012C0006729A50A031D6729A60A0319201411001E
:1012D000A507031C6E29A60A031920141100801FFC
:1012E000803AA60703182014221A4328A21A92282B
:1012F000D12820000800220054080319EC29DC0042
:1013000058080319EC29DC0703188D297F30DC020B
:10131000031CEC290319EC2991298130DC070318FF
:10132000EC295C08F700F801F901FA015508E00022
:10133000E0175608DF005708DE001830DC00DD013A
:101340005E1CBA295B08FA07031CAC29F90A031DC5
:10135000AC29F80A0319DD175A08F907031CB32949
:10136000F80A0319DD175908D600D6175608F807EA
:101370000318DD17DD0DF80CF90CFA0CE00CDF0C8E
:10138000DE0C0310DC0B9F290130F7070318EC2952
:10139000F81BD129E00DFA0DF90DF80DF70303192B
:1013A000EC29E01FE229FA0A031DE229F90A031DCC
:1013B000E229F80A031DE229F80CF90CFA0CF70AE5
:1013C0000319EC295508DD005908DD06DD1FEA295F
:1013D000F817F029F813F029F701F801F901FA01DB
:1013E00020000800803189248831F808031DDD2B96
:1013F000CC302200D300D40180312000B4248831C5
:1014000044302200D3000130D40080312000B424C5
:10141000883103302200D000FA30D400803120001F
:10142000AB2188312200D00B0C2A80312000892486
:1014300088312200BD0175083D020318DC2B3D08F0
:10144000D0008031200089248831F80803192B2A24
:101450000030F800552A55302200D300D4018031E5
:101460002000B42488312200D1015108073C031C1C
:10147000522A500DF700F70DF70DF830F7057708F1
:1014800051076A3E8400203085000318850A000851
:10149000D200D300D40180312000B424883122004E
:1014A000D10A352A0130F8002000F8080319D92B99
:1014B000BE302200D300D40180312000B424883112
:1014C000F6012200BC013C08073C031C8E2AC230F6
:1014D0003C07F8002030FA000318FA0A7808D00018
:1014E0007A08D1008031200014268831220051086A
:1014F00085005008840078088000C2303C078400D2
:10150000203085000318850A0008D000D100803102
:101510002000FD2488312200BC0A632A803120008B
:101520001426883178082200CA00803120008924DE
:101530008831760822004A02031DD32BFB014308A1
:10154000FA004208D6004308D7008031200039262F
:1015500088317A082200C1007908C0007808BF00ED
:101560007708BE00EB01EA01E901E8014108EF005C
:101570004008EE003F08ED003E08EC0080312000FE
:10158000582688310318C62A031DFC2A831022001E
:101590004108EB004008EA003F08E9003E08E80087
:1015A000EF01EE01ED018230EC00200000207A080E
:1015B0002200D3007908D2007808D1007708D00043
:1015C0005308EB005208EA005108E9005008E8000F
:1015D000EF01EE01ED018330EC0080312000C126E7
:1015E00088317A082200C1007908C0007808BF005D
:1015F0007708BE00302B2000831422004108EB0046
:101600004008EA003F08E9003E08E800EF01EE016B
:10161000ED018230EC00200000207A082200D30087
:101620007908D2007808D1007708D0005308EB0081
:101630005208EA005108E9005008E800EF01EE0105
:10164000ED018330EC0080312000C12688317A081A
:101650002200C1007908C0007808BF007708BE00EA
:1016600003103D0D223E8400203085000318850ABA
:101670004108DB004008DA003F08D9003E08D800E6
:1016800080312000BB2788317808800003102200B9
:101690003D0D163E013E0C3E8400203085000318AF
:1016A000850A4108D7004008D6003F08D5003E080B
:1016B000D400DB01DA014830D9008530D8002000A1
:1016C0007B217A082200D5007908D4007808D3005D
:1016D0007708D2004108DB004008DA003F08D90053
:1016E0003E08D80080312000BB27883178082200CE
:1016F000D7006430D800F701F801570803105818D4
:10170000F707F70CF80CD818F707F70CF80C58196E
:10171000F707F70CF80CD819F707F70CF80C581A5C
:10172000F707F70CF80CD81AF707F70CF80C581B4A
:10173000F707F70CF80CD81BF707F70CF80C78082C
:10174000D701D600803120003926883105082200D3
:10175000D7000408D60083145508EB005408EA00AB
:101760005308E9005208E8007A08EF007908EE0013
:101770007808ED007708EC002000002022005708D0
:101780008500560884007A08DB007908DA007808BA
:10179000D9007708D80080312000BB27883178082D
:1017A0008000D92B2200FB0A7B080A3C031C0100A5
:1017B00020002200BD0A1B2A200090314D2A210062
:1017C0008E1122008E110230C6008C30D50080317F
:1017D0002000752488312200C60BE52B21009D14C2
:1017E0006A30F700F70BF22B00008E1122008E15E5
:1017F00021009D18F92B1C08FA001B082200C400C8
:101800007A08C5000930D40080312000AB2188312E
:1018100004302200C600AA30D50080312000752493
:1018200088312200C60B0B2C4408F8004508F9004B
:10183000200008002200C2010530C30021008E11E3
:1018400022008E1521001E169E161E139E171D14B3
:101850001E109E10043023008C0000308E000830D3
:10186000F80021001D08833978049D000130220012
:10187000D40080312000AB218831DF237908220099
:10188000BD007808BC002000DF2379082200BF00DB
:101890007808BE003C083E02C4003D083F3BC5003E
:1018A000FA004508C1004408C0003F08BD003E08DA
:1018B000BC00C108031D602C4008143C0318652CB3
:1018C000C20A43084202031C432C3E08F8003F08AA
:1018D000F90090312000562A2200CB01CA01C9012B
:1018E000C801CF01CE01CD01CC01903098008030ED
:1018F000990021001E169E161E139E171D141E1001
:101900009E10003023008C0004308E0021001E1039
:101910009E101830F8001D08833978049D000130AE
:101920002200D40080312000AB2188312200D10177
:10193000D00151083D02031C6C2D031DA32C3C0853
:10194000500203186C2D21009D149D18A52C1C0815
:10195000FA001B082200BE007A08BF003F08D7002B
:101960003E08D600803120003926883183147A0859
:101970002200EB007908EA007808E9007708E8001F
:101980002D08EF002C08EE002B08ED002A08EC00D3
:10199000200000207A082200D7007908D6007808B5
:1019A000D5007708D4005708EB005608EA00550820
:1019B000E9005408E800EF01EE01ED018930EC0088
:1019C00080312000C1268831831022002D08EB00D1
:1019D0002C08EA002B08E9002A08E8007A08EF0042
:1019E0007908EE007808ED007708EC002000002070
:1019F0007A082200AD007908AC007808AB007708BF
:101A0000AA003F08D7003E08D600803120003926C2
:101A1000883183147A082200EB007908EA007808FC
:101A2000E9007708E8002D08EF002C08EE002B08ED
:101A3000ED002A08EC00200000207A082200C300F4
:101A40007908C2007808C1007708C0004308D700B1
:101A50004208D6004108D5004008D4004308DB0006
:101A60004208DA004108D9004008D80020007B2154
:101A70007A082200C7007908C6007808C5007708F0
:101A8000C40083104B08EB004A08EA004908E9004B
:101A90004808E8004708EF004608EE004508ED005A
:101AA0004408EC00200000207A082200CB007908CE
:101AB000CA007808C9007708C8000230D400FA309C
:101AC000D50080312000752488312200D40B5F2D91
:101AD000D00A0319D10A992C3D08D7003C08D6003A
:101AE000803120003926883122004B08EB004A085B
:101AF000EA004908E9004808E8007A08EF00790898
:101B0000EE007808ED007708EC0080312000C12657
:101B100088317A082200D7007908D6007808D500E5
:101B20007708D4005708DB005608DA005508D900BA
:101B30005408D8005B08EB005A08EA005908E9008D
:101B40005808E800EF01EE01ED01EC0180312000C2
:101B5000582688310318AE2D031DB32DF701F80167
:101B6000F901FA01372E22005B08DF005A08DE0077
:101B70005908DD005808DC002030E500DC30E400C6
:101B800064088400650885000008EB01EA007F30E6
:101B9000EA070030EB3D03106B0CFA006A0CF90009
:101BA000EA0065088500640884006A0880005F0810
:101BB000E3005E08E2005D08E1005C08E0005B080D
:101BC000EB005A08EA005908E9005808E8005F08E5
:101BD000EF005E08EE005D08ED005C08EC0080316F
:101BE0002000C1268831831022005F08EB005E08C8
:101BF000EA005D08E9005C08E8007A08EF0079086F
:101C0000EE007808ED007708EC00200000207A084C
:101C10002200DF007908DE007808DD007708DC00AC
:101C2000640884006508850080036308EB0062088F
:101C3000EA006108E9006008E8005F08EF005E085C
:101C4000EE005D08ED005C08EC00803120005826B5
:101C5000883103192D2E2200D72D22006008F700AD
:101C60006108F8006208F9006308FA0020007A08A9
:101C70002200CF007908CE007808CD007708CC008C
:101C80004F08DB004E08DA004D08D9004C08D80098
:101C900080312000BB278831790890316F2A2200DB
:101CA000CF01CE01CD01CC0121000C140030200069
:101CB0000C1C0130F800F808031D642E8031DC276D
:101CC00088312200542E200018302200D000D00885
:101CD0000319B22E80312000E227883121000C1434
:101CE00020000C1C902E013022005002D200FA017C
:101CF000F901F8010130F7005208D3000319862ECC
:101D0000F735F80DF90DFA0DD30B802E7708CC04BA
:101D10007808CD047908CE047A08CF04B02E2000CC
:101D2000013022005002D200FA01F901F80101301D
:101D3000F7005208D3000319A32EF735F80DF90D5B
:101D4000FA0DD30B9D2EFF30F706F806F906FA06BA
:101D50007708CC057808CD057908CE057A08CF0537
:101D6000D003672ED001710850020318BE2E8031B7
:101D70002000E22788312200D00AB32ECE1FC22EC7
:101D8000FF30CF044C08F7004D08F8004E08F9006A
:101D90004F08FA002000080022003C08BD003D0862
:101DA000803A20000319DB2EC03A0319DE2E603A78
:101DB0000319E12EE32E0130F100E32E0330F10090
:101DC000E32E0230F10022008C1021008C10200044
:101DD0004F269031872A22003F082100B1002200BF
:101DE0003E082100B00022003D082100AF00220083
:101DF0003C082100AE0090312000932A2200CA0145
:101E0000C901C801C701CB0146084B0203181A2FAC
:101E100020004F2677082200C7077808C83D7908B8
:101E2000C93D7A08CA3D80312000DC278831220074
:101E3000CB0A042F83104A08CF004908CE00480877
:101E4000CD004708CC00D301D201D1014608D00013
:101E500083182E2F20308500D83084004F08530679
:101E60008039DD00CF1F3F2FCC09CD09CE09CF0926
:101E7000CC0A0319CD0A0319CE0A0319CF0AD31FBE
:101E80004C2FD009D109D209D309D00A0319D10A9C
:101E90000319D20A0319D30AF701F801F901FA016B
:101EA000D801D901DA01DB0153085204510450046E
:101EB00003198A2F2030DC000310CC0DCD0DCE0D80
:101EC000CF0DD80DD90DDA0DDB0D53085B02031DC4
:101ED000732F52085A02031D732F51085902031D14
:101EE000732F50085802031C842F5008D802510841
:101EF000031C510FD9025208031C520FDA02530877
:101F0000031C530FDB020314F70DF80DF90DFA0D46
:101F1000DC0B5C2FDD1F972FF709F809F909FA0987
:101F2000F70A0319F80A0319F90A0319FA0A5808F3
:101F300080005908813F5A08823F5B08833F200098
:101F40000800B630F700FA01F901F80122004E103E
:101F5000CD1FB82F4E14CA09CB09CC09CD09CA0A26
:101F6000031DB82FCB0A031DB82FCC0A0319CD0AC5
:101F70004A084B044C044D04031DC02FF701CF2F1A
:101F80000310F81BCC2FCA0DCB0DCC0DCD0DFA0DC7
:101F9000F90DF80DF70BC02FF8134E18F8172000A5
:021FA000080037
:1020000022003C08C60088312000FE2690317A0864
:102010002200CD007908CC007808CB007708CA00F0
:1020200088312000A12790317A082200C000790869
:10203000BF007808BE007708BD004008C4003F0814
:10204000C3003E08C2003D08C10044082100AD00A5
:10205000220043082100AC00220042082100AB000E
:10206000220041082100AA0090312000A02A22006D
:102070003C08C0004008C60088312000FE26903190
:102080007A082200C9007908C8007808C7007708D4
:10209000C6004908CD004808CC004708CB004608D8
:1020A000CA0088312000A127903105082200CB000A
:1020B0000408CA0083147A08EB007908EA0078085B
:1020C000E9007708E80021002D082200EF00210038
:1020D0002C082200EE0021002B082200ED00210038
:1020E0002A082200EC0088312000002090312200D4
:1020F0004B0885004A0884007A08C3007908C200AA
:102100007808C1007708C0004308EB004208EA00E5
:102110004108E9004008E800210031082200EF00F2
:10212000210030082200EE0021002F082200ED00DF
:1021300021002E082200EC0080312000C1269031C1
:102140009031AA2A55303C008F00AA308F000F1022
:102150001030A0001130A10010303D00A00011305F
:10216000A10055303C008F00AA308F000F14F030D2
:10217000210099000E1222000E1620002410623059
:10218000A5000B30A60021000E148E142400171099
:1021900097109711C0309200FF30930036309500B1
:1021A000161496172000EC010430ED00EF01EE014B
:1021B0002100A101A0010C30F00020002411210019
:1021C000A301A2012000A4112100A501A401A901DD
:1021D000A801A701A6014030F100AD01AC01AB019F
:1021E000AA01B1017430B0003D30AF008C30AE00B8
:1021F0000330F300F40120002412FB012200AD01A2
:10220000AC01AB018830AA0023008C018E012200B2
:1022100092019101940193011229403440342C34ED
:1022200000340034113085000D3084008517120011
:10223000F700003A03192C291200F800F81B242992
:102240000F39870012008600781B1200781F1200D9
:102250001E00F70B26291729B301B201B601BA01F6
:10226000B901B801B70121009115C0308B040630C7
:102270002000AC0001302200D40080312000AB21CE
:10228000903122003308FA003208B20A0319B30A67
:10229000BC007A08BD003C08F43C031D58293D0BE6
:1022A000582921008C12203022008C06B301B20183
:1022B0002000241C3A29241021008C1220302200F6
:1022C0008C0620002D08F20072080B3C03196C29C3
:1022D0007208163C031D9A2972080B3C031D7329D2
:1022E0000B30A60075291630A6002100911101308F
:1022F0002200BC0080312000FB219031210091158B
:1023000072080B3C031D8C2920002908B500B6017A
:102310002708B700B80121007208163C031D9B294D
:1023200020002A08B500FA012908B6002808B700DD
:102330002708B80021007208703C0319A32972080D
:10234000DE3C031DD5297208703C031DAC290B30FF
:102350002000A600AF29210016302000A600210091
:10236000911102302200BC0080312000FB2190310D
:10237000210091157208703C031DC6292000290810
:10238000D200D3012708D400D50121007208DE3C19
:10239000031DD52920002A08D200FA012908D300FC
:1023A0002808D4002708D50021007208043C031D2A
:1023B000F22904302000ED0021009111803120002D
:1023C000992B903179082200AF007808AE002100E7
:1023D000911522002E082000B90022002F082000AD
:1023E000BA0021007208053C031D0F2A04302000AA
:1023F000ED002100911180312000EB2B9031790804
:102400002200AF007808AE002100911522002E08AE
:102410002000BB0022002F082000BC002100720811
:102420000C3C031D292A803120003F2C90310C30B8
:10243000F00080314E2C903179082200B1007808EC
:10244000B00030082000BD00220031082000BE008E
:10245000210072080D3C031D432A803120005A2CB4
:1024600090310C30F0008031692C903179082200D5
:10247000B1007808B00030082000BF002200310809
:102480002000C000210072080E3C031D4F2A80313D
:102490002000CC2D90318831F22990312100720832
:1024A0000F3C031D642A883120001A2C90317908D2
:1024B0002200B5007808B40034082000B3002200E0
:1024C00035082000B40021007208103C031D7D2A4D
:1024D0002200BD01C830BC00883120006C2C903136
:1024E00079082200B5007808B40034082000B10053
:1024F000220035082000B20021007208123C031DA2
:10250000A12A40302200BC0088312000CC2E90311E
:102510002200BF017430BE003D30BD008C30BC00D5
:1025200088312000EB2E90310A302200C60088311D
:102530002000FE2690310A302200BC002000002836
:1025400021007208113C031DF42A05302200BC0052
:10255000200037287A082200BA007908B9007808E4
:10256000B8007708B7003A08DB003908DA00380805
:10257000D9003708D80080312000BB279031780877
:10258000D70022003A08D7003908D6003808D5000D
:102590003708D400DB01DA012030D9008230D800BE
:1025A000883120007B2190317A082200DB007908F5
:1025B000DA007808D9007708D80080312000BB27DE
:1025C000903179082200BD007808BC003D08BF00AA
:1025D0003C08BE00C1010A30C000803120007223D7
:1025E00090317708D80021008C12203022008C0610
:0625F00020003A296300FF
:020000040001F9
:04000E00843FFB3AF6
:00000001FF
;PIC16F1705
;CRC=7CE7  CREATED="14-Jun-17 18:04"
