:060000008831182E0000FB
:0800080083018031200077081C
:10001000A0007808A1007908A2007A08A300850151
:1000200091308400001D162811192D28850191306A
:100030008400801D1D2891192F288501923084008D
:10004000001C2428121831282008F7002108F80085
:100050002208F9002308FA00090080319B29803129
:1000600034298031A3290B0000345E34BC34E234DF
:1000700061343F34DD348334C2349C347E342034E4
:10008000A334FD341F3441349D34C33421347F34D0
:10009000FC34A23440341E345F340134E334BD34C4
:1000A0003E3460348234DC3423347D349F34C134B4
:1000B00042341C34FE34A034E134BF345D340334A4
:1000C0008034DE343C346234BE34E03402345C3498
:1000D000DF34813463343D347C342234C0349E3484
:1000E0001D344334A134FF3446341834FA34A43474
:1000F000273479349B34C5348434DA343834663464
:10010000E534BB3459340734DB348534673439344F
:10011000BA34E4340634583419344734A534FB3443
:1001200078342634C4349A3465343B34D934873433
:1001300004345A34B834E634A734F9341B34453423
:10014000C63498347A342434F834A63444341A3417
:100150009934C73425347B343A3464348634D83403
:100160005B340534E734B9348C34D23430346E34F3
:10017000ED34B33451340F344E341034F234AC34E3
:100180002F3471349334CD3411344F34AD34F334CF
:1001900070342E34CC349234D3348D346F343134C3
:1001A000B234EC340E345034AF34F13413344D34B3
:1001B000CE34903472342C346D343334D1348F34A3
:1001C0000C345234B034EE3432346C348E34D03497
:1001D00053340D34EF34B134F034AE344C34123483
:1001E0009134CF342D347334CA3494347634283473
:1001F000AB34F5341734493408345634B434EA3463
:1002000069343734D5348B3457340934EB34B5344E
:10021000363468348A34D4349534CB342934773442
:10022000F434AA3448341634E934B73455340B3432
:100230008834D63434346A342B3475349734C93422
:100240004A341434F634A83474342A34C834963416
:1002500015344B34A934F734B634E8340A34543402
:10026000D73489346B3435342400941A3A29F30195
:100270001419F3177308F30A2300B1003108803C06
:10028000031C75293108803C031D4B2924001108EB
:100290002300B0005529240015132000911D4E297C
:1002A0002400110815162300B000310B5C2930081A
:1002B0002000EC00742923003108013C0318752943
:1002C0003108803C031975290C3020006C0784002C
:1002D000203085000318850A2300300880002000A4
:1002E0006C0B73292414EC0A230031087F3C03189B
:1002F000972920006C08EC0A0C3E84002030850011
:100300000318850A00082300B2003208B300240055
:1003100011082300330824009100151620009111C4
:10032000240014189129F801151AF80A2300200056
:100330009111803124282100A20A0319A30A200068
:100340001111803124282100A40A0319A50A2000D4
:1003500012108031242820308500D030840000081D
:100360000319BF290A30F800F701F70BB529F80B7C
:10037000B4295F30F700F70BBB29800BB2290800C6
:10038000220044080739F700440CF800F80CF80C78
:100390001F30F8057808460784000030473D850087
:1003A000F801F80AF70AD529F80DF70BD429C50882
:1003B0000319DD2978088004E029F8097808800508
:1003C00020000800220044080739F700440CF80018
:1003D000F80CF80C1F30F805780845078400003049
:1003E000463D85000008F800F70AF729F80CF70BDE
:1003F000F629200008002200380B022A6230200073
:10040000A50022003808023C031D0A2A62302000A1
:10041000A5002200200025082200C400C5010130EB
:10042000C700C6012000C02125082200C400C50164
:10043000C7018030C6002000C02119302200D00042
:100440002000AB2125082200C4000130C500C700F0
:10045000C6012000C02125082200C400C501C70133
:100460008030C6002000C0214F30F700F70B362A3D
:10047000392AA410950125082200C4000130C500C6
:10048000C7018030C6002000C02125082200C4001A
:10049000C601C5012000E2217818502AA41C3B2A7D
:1004A000A410950125082200C4000130C500C70131
:1004B0008030C6002000C02125082200C400C601EB
:1004C000C5012000E221781C672AA41C522A2200C0
:1004D000B9013908043C031CE12ABA303907F80095
:1004E0002030FA000318FA0A7808C0007A08C10020
:1004F000C301C2014208073C031CD72A2000A410F4
:10050000950125082200C4000130C500C7018030D4
:10051000C6002000C02125082200C400C601C50174
:100520002000E2217818962AA41C812A4F30F70077
:10053000F70B982A9B2A25082200C4000130C50029
:10054000C7018030C6002000C02125082200C40059
:10055000C601C5012000E221781CD42A22004208ED
:10056000073CF8000130F700F8080319BA2AF735FC
:10057000F80BB72A7708C3042000A41095012508BA
:100580002200C4000130C500C7018030C600200031
:10059000C02125082200C400C601C5012000E221B7
:1005A000781CD42AA41CBF2A2200C20A7A2A430833
:1005B000F800410885004008840078088000B90AE6
:1005C000692A3B083A073C073D07BF003E083F0247
:1005D0000319F42A2000A41CEF2A2200F42A210087
:1005E0000E11043022008E06200026080B3C031D4D
:1005F000062BA80122003A082000A700FA012200D9
:100600003C082000A9007A08AA00582B22003A08CA
:100610002000A80022003B082000A70022003C0880
:100620007F39C0002000AA0022003D082000A90058
:100630002200BC1F592B20002A082200C1002000E4
:1006400029082200C000FF30C300C2004108430651
:100650008039C500C11F312BC009C109C00A031967
:10066000C10AC31F382BC209C309C20A0319C30A2E
:100670001030C400F701FA01C10CC00C031C462B5A
:100680004208F7070318FA0A4308FA07FA0CF70CAE
:10069000F90CF80CC40B3C2BC51F532BF809F909B6
:1006A000F80A0319F90A79082000AA007808A900B5
:1006B00022002000080010302200BC00F701FA01DF
:1006C000B90CB80C031C6A2B3A08F7070318FA0A8E
:1006D0003B08FA07FA0CF70CF90CF80CBC0B602B72
:1006E00020000800F801F901F701FA0122003D0895
:1006F000031D7D2B3C080319972B1030BE000310FF
:10070000BA0DBB0DF70DFA0D3D087A02031D8A2BB9
:100710003C087702031C932B3C08F702031CFA03E6
:100720003D08FA020314F80DF90DBE0B7F2B2000D3
:10073000080021008C1022008C143530F700F70BD4
:100740009F2B21008C1022008C102000EF01EE0165
:1007500021000C1420000C18B32B0230F700F70B0B
:10076000AF2B0000A82B21000C1420000C1CC12B67
:10077000EE0A0319EF0A1A30F700F70BBD2B000041
:10078000B32B6F082200B90020006E082200B800C9
:10079000BB010A30BA0020005B2379082200B900AF
:1007A0007808B8003908BB003808BA00BD013030FD
:1007B000BC002000722379082200B9007808B80034
:1007C00011303807F8000030393DFA007A08F90096
:1007D000883120004F2F21008C1222008C163530DA
:1007E000F700F70BF12B21008C1222008C12210054
:1007F000A101A0010C1620000C1A062C0230F700F3
:10080000F70B002C00002100FA2B200021000C1611
:1008100020000C1E142CEE0A0319EF0A1A30F70000
:10082000F70B102C0000062C210021082200B90033
:10083000210020082200B800BB010A30BA002000C5
:100840005B2379082200B9007808B8003908BB009A
:100850003808BA00BD013030BC002000722379088E
:100860002200B9007808B80011303807F8000030CD
:10087000393DFA007A08F900883120006C2F2419DC
:100880004C2C25009301053093001E109E10210072
:100890001115C0308B0420008831842F70080C3C67
:1008A000031D582C21002208F8002308F90020001D
:1008B0008831892FA419672C25009A0105309A00E8
:1008C0001E119E1121001214C0308B0420008831AB
:1008D0009E2F70080C3C031D732C21002408F80087
:1008E0002508F90020008831A32F02302200D10210
:1008F000031C872C20308500D130840000080319A8
:10090000872C852C832C842C0000800B822C2000CB
:10091000080021000C1122000C110230CB00F43031
:10092000D100200075242200CB0B8F2C21000C1548
:10093000BF30F700F70B9A2C9D2C0C152200CA0132
:1009400020000C1DA62C2200CA0A20000230220022
:10095000CB00D430D100200075242200CB0BA92C71
:100960004A08F800200008002200CD014D08073C8D
:10097000031CE42C21000C1122000C110530F7009F
:10098000F70BC02CCB360318C72C0C11C82C0C1538
:1009900021000C119F30F700F70BCC2CCF2C22003C
:1009A0004D08073C031DDB2C4C0BDB2C21000C11EC
:1009B00022000C15E22C21000C150530F700F70B76
:1009C000DF2C2200CD0AB62C2000080021000C11DB
:1009D00022000C110230F700F70BEC2C0000210074
:1009E0000C151F30F700F70BF32CF62C0C1500300C
:1009F00020000C190130F800080076082200490692
:100A000020003320F800F6007608F80008000130D6
:100A10002200BA00BB01BC00BD01BE01C001F6014D
:100A200020008924220041107818411441181C2DFF
:100A30002000241E212D2200F4010030F800CA2DD0
:100A40002000F0302200CB00CC012000B424220092
:100A5000BD012000E624780B312D02302200BD00BC
:100A6000200078302200D10020007524E624780B85
:100A70003C2D22003D14200001302200D000200037
:100A8000AB2122003D08033C031D482DB82DB42D99
:100A9000BD0803194F2D03103D0CBF00702D7408C5
:100AA0003A020318632D62303B0784002030850032
:100AB0000318850A00083C05031D602D0030612DD8
:100AC0000130BF006B2D74083A020319692D003004
:100AD0006A2D0130BF00BF08031D702D3A08BE000B
:100AE0003F0B7D2D62303B078400203085000318CA
:100AF000850A00083C048000882D62303B07840092
:100B0000203085000318850A3C08FF3A0005800064
:100B10003F08C30021000C1122000C11430B982D3B
:100B20000230F700F70B922D000021000C15220077
:100B30006930D1002000752421000C152200BA0A6A
:100B40000310BC0DBC08031DB42D62303B078400AC
:100B5000203085000318850A0008C300C900200062
:100B6000FD242200BB0ABC0A3B08073C0318282DC1
:100B70003A08403C031CBE2DF401C82D3E08F40089
:100B800020002412F4080319241601302200C000AA
:100B90004008F8002000080021000C15F501200095
:100BA0008924F808031D102EF40124120725780863
:100BB000F8080319102EF50A2200B8013808073C7E
:100BC000031C072E01307502F700F70DF70DF70D26
:100BD000F830F705770838076A3EF8002030FA0049
:100BE0000318FA0A7808BA007A08BB00623038079E
:100BF0008400203085000318850A0008BC003B08EB
:100C000085003A0884003C088000B80ADE2D2000E8
:100C10000725F8080319102E7508083C0318DB2D6A
:100C20007508C1008831B82F2200CB01CA014A08DB
:100C3000073C031C352E2000E624F80803192D2E4E
:100C40000130F70022004A08F80003192A2EF73570
:100C5000F80B272E7708CB04200078302200D10033
:100C6000200075242200CA0A172E4B08F800200025
:100C700008008E30F70022005108F8005008F900F3
:100C8000FA01F808031D4E2E7908F800F901083022
:100C9000F702F808031D4E2EF701562E0310F81B1D
:100CA000552EF90DF80DF7034E2EF813200008000D
:100CB00022006508EC006908EC06EC1F642E0311A5
:100CC0000310E51B0314972E6508EC006808ED007F
:100CD0006408ED020319722EEC1F972E0308013AE7
:100CE0008300972E6908ED006508ED0203197E2E3A
:100CF000EC1F972E0308013A8300972E6A08ED0037
:100D00006608ED0203198A2EEC1F972E0308013A9C
:100D10008300972E6B08ED006708ED020319962EED
:100D2000EC1F972E0308013A8300972E0310200032
:100D300008002200640803198C2F2300A60022005B
:100D4000680803198C2F2300A602031CAE2E7F30E7
:100D5000A607031CAD2E22008C2FB82E8130A602D0
:100D60000318B42E22008C2F031DB82E22008C2FC6
:100D70002608F700F801F901FA01A501220065082B
:100D80002300A400A417220066082300A300220069
:100D900067082300A2001930A60022006B08230078
:100DA000A2020318E52E0130A3020318E52EA402C7
:100DB0000318E52EA5020318E52EA50AA40AA30A26
:100DC00022006B082300A207232F22006A082300B9
:100DD000A3020318062F0130A4020318062FA50250
:100DE0000318062FA50AA40A22006A082300A307F5
:100DF00022006B082300A207031C232FA30A031D54
:100E0000232FA40A031D232FA50A232F22006908DC
:100E100080382300A4020318222F0130A5020318F2
:100E2000222FA50A2200690880382300A407220087
:100E30006A082300A307031CF82EA40A031DF82E3A
:100E4000A50AF82E7A14A60B262F312F0310A20D17
:100E5000A30DA40DA50D0310FA0DF90DF80DA70DA6
:100E6000CD2E271C392F0310F80CF90CFA0CA70C07
:100E70003D2FF70B3D2F22008C2FA71B6C2F03104B
:100E8000A20DA30DA40DA50D22006B082300A20244
:100E90000318542F0130A3020318542FA40203187F
:100EA000542FA502031C7D2F22006A082300A302F1
:100EB0000318612F0130A4020318612FA502031C3F
:100EC0007D2F2200690880382300A40203186C2FAC
:100ED0000130A502031C7D2FFA0A031D7D2FF90A9C
:100EE000031D7D2FF80A031D7D2FF70A031D7A2F9E
:100EF00022008C2FF80CF90CFA0C22006508230054
:100F0000A600220069082300A606A61F892FF8174D
:100F1000912FF813912F2200F701F801F901FA013E
:100F20002300200008008E30F70022005008F7024E
:100F30005108F9005208F800F917F7080319AB2F08
:100F40000310F908031DA72FF8080319AB2FF90C9C
:100F5000F80CF70BA02FD11FB22FF809F909F80AE6
:100F60000319F90A2000080021008E1122008E11B9
:100F70000230C2008C30D100200075242200C20B48
:100F8000BA2F21009D146A30F700F70BC52F00001F
:100F90008E1122008E1521009D18CC2F1C08FA00FE
:100FA0001B082200C0007A08C1000930D0002000D0
:100FB000AB2104302200C200AA30D10020007524E9
:100FC0002200C20BDC2F4008F8004108F900200085
:020FD000080017
:101000008030831C06282200E90620002300A2016C
:10101000A301220065082300A10022006908230023
:10102000A10622006408031920292300A000F7006C
:101030002200680803192F292300A0020319B728EA
:10104000031C6828220069082300A600A6172200B6
:101050006A082300A50022006B082300A400A30156
:101060000310A60CA50CA40CA30CA00B2F28A11FE9
:101070003C282214482922102010221620308500F6
:10108000E73084005D292212A11B5028201C5B2818
:10109000A60CA50CA40CA30CF70A031943295B2882
:1010A000A61B5E280310A30DA40DA50DA60DF70326
:1010B0000319432950282217E0282213220065082B
:1010C0002300A100A11F6628A6173C29A6133C29CE
:1010D000220068082300A000F70022006408230013
:1010E000A002220065082300A600A61722006608B9
:1010F0002300A500220067082300A400A301031019
:10110000A60CA50CA40CA30CA00B7E28A11F8B2859
:10111000A2144829A2102010A21620308500EB301E
:1011200084005D29A212A11B9F28201CAA28A60CBE
:10113000A50CA40CA30CF70A03194329AA28A61B83
:10114000AD280310A30DA40DA50DA60DF7030319DB
:1011500043299F28A217E028A21322006908230030
:10116000A100A11FB528A6173C29A6133C292200DF
:1011700069082300A600A61722006A082300A5001C
:1011800022006B082300A400A11FCA28A613221561
:1011900048292211A301201020308500E730840067
:1011A0005D29A11BF628220065082300A100201C50
:1011B000E028A60CA50CA40CA30CF70A03194329DC
:1011C000A31FF128A40A031DF128A50A031DF12875
:1011D000A60A031DF128A60CA50CA40CF70A0319F6
:1011E0004329221B5D28A21BAC2819298030A606A2
:1011F000A61F00294829220069082300A1000F2901
:10120000220065082300A100A608031D0F29A508D8
:10121000031D0F29A408031D0F29F7013C29A61B54
:1012200019290310A30DA40DA50DA60DF70B0F2969
:101230004329A11F1D29A6173C29A6133C292200DA
:101240006808F70069082300A60022006A08230046
:10125000A50022006B082300A4003C29220064089A
:10126000F70065082300A600220066082300A500F9
:10127000220067082300A4002608F8002508F900CA
:101280002408FA007929F701F801F901FA0179290E
:10129000A301A409A509A609A309A30A031D5629A8
:1012A000A40A031D5629A50A0319A60A22183B28D9
:1012B000A2188A282219C928FB280008A407031CA1
:1012C0006729A50A031D6729A60A0319201411001E
:1012D000A507031C6E29A60A031920141100801FFC
:1012E000803AA60703182014221A4328A21A92282B
:1012F000D12820000800220050080319EC29DC0046
:1013000054080319EC29DC0703188D297F30DC020F
:10131000031CEC290319EC2991298130DC070318FF
:10132000EC295C08F700F801F901FA015108E00026
:10133000E0175208DF005308DE001830DC00DD0142
:101340005E1CBA295708FA07031CAC29F90A031DC9
:10135000AC29F80A0319DD175608F907031CB3294D
:10136000F80A0319DD175508D200D2175208F807FA
:101370000318DD17DD0DF80CF90CFA0CE00CDF0C8E
:10138000DE0C0310DC0B9F290130F7070318EC2952
:10139000F81BD129E00DFA0DF90DF80DF70303192B
:1013A000EC29E01FE229FA0A031DE229F90A031DCC
:1013B000E229F80A031DE229F80CF90CFA0CF70AE5
:1013C0000319EC295108DD005508DD06DD1FEA2967
:1013D000F817F029F813F029F701F801F901FA01DB
:1013E00020000800803189248831F808031DDD2B96
:1013F000CC302200CB00CC0180312000B4248831D5
:1014000044302200CB000130CC0080312000B424D5
:10141000883103302200C800FA30D000803120002B
:10142000AB2188312200C80B0C2A8031200089248E
:1014300088312200B901750839020318DC2B3908FC
:10144000C8008031200089248831F80803192B2A2C
:101450000030F800552A55302200CB00CC018031F5
:101460002000B42488312200C9014908073C031C2C
:10147000522A480DF700F70DF70DF830F7057708F9
:1014800049076A3E8400203085000318850A000859
:10149000CA00CB00CC0180312000B4248831220066
:1014A000C90A352A0130F8002000F8080319D92BA1
:1014B000BE302200CB00CC0180312000B424883122
:1014C000F6012200B8013808073C031C8E2ABE3002
:1014D0003807F8002030FA000318FA0A7808C80024
:1014E0007A08C9008031200014268831220049087A
:1014F00085004808840078088000BE3038078400E2
:10150000203085000318850A0008C800C900803112
:101510002000FD2488312200B80A632A803120008F
:101520001426883178082200C600803120008924E2
:101530008831760822004602031DD32BFB013F08A9
:10154000FA003E08D0003F08D10080312000392643
:1015500088317A082200BD007908BC007808BB00F9
:101560007708BA00E701E601E501E4013D08EB0078
:101570003C08EA003B08E9003A08E8008031200016
:10158000582688310318C62A031DFC2A831022001E
:101590003D08E7003C08E6003B08E5003A08E400A7
:1015A000EB01EA01E9018230E800200000207A081E
:1015B0002200CB007908CA007808C9007708C80063
:1015C0004B08E7004A08E6004908E5004808E4003F
:1015D000EB01EA01E9018330E8008031200099261F
:1015E00088317A082200BD007908BC007808BB0069
:1015F0007708BA00302B2000831422003D08E70052
:101600003C08E6003B08E5003A08E400EB01EA018B
:10161000E9018230E800200000207A082200CB0097
:101620007908CA007808C9007708C8004B08E700A5
:101630004A08E6004908E5004808E400EB01EA0131
:10164000E9018330E80080312000992688317A084A
:101650002200BD007908BC007808BB007708BA00FA
:101660000310390D223E8400203085000318850ABE
:101670003D08D3003C08D2003B08D1003A08D00016
:1016800080312000932788317808800003102200E1
:10169000390D163E013E0C3E8400203085000318B3
:1016A000850A3D08D3003C08D2003B08D1003A0827
:1016B000D000D701D6014830D5008530D4002000B5
:1016C0007B217A082200CD007908CC007808CB0075
:1016D0007708CA003D08D3003C08D2003B08D1007F
:1016E0003A08D00080312000932788317808220002
:1016F000CF006430D000F701F8014F0803105018F4
:10170000F707F70CF80CD018F707F70CF80C50197E
:10171000F707F70CF80CD019F707F70CF80C501A6C
:10172000F707F70CF80CD01AF707F70CF80C501B5A
:10173000F707F70CF80CD01BF707F70CF80C780834
:10174000D101D000803120003926883105082200DF
:10175000CF000408CE0083144D08E7004C08E600D3
:101760004B08E5004A08E4007A08EB007908EA0033
:101770007808E9007708E8002000002022004F08E0
:1017800085004E0884007A08D3007908D2007808D2
:10179000D1007708D0008031200093278831780865
:1017A0008000D92B2200FB0A7B080A3C031C0100A5
:1017B00020002200B90A1B2A20008831BA2F2200FB
:1017C000BE010530BF0021008E1122008E152100C0
:1017D0001E169E161E139E171D141E109E100430FA
:1017E00023008C0000308E000830F80021001D0816
:1017F000833978049D0001302200D0008031200020
:10180000AB2188318031B427883179082200B900B2
:101810007808B80080312000B42788317908220088
:10182000BB007808BA0038083A02C00039083B3BD0
:10183000C100FA004108BD004008BC003B08B900E7
:101840003A08B800BD08031D292C3C08143C0318B5
:101850002E2CBE0A3F083E02031C0A2C3A08F80050
:101860003B08F90088312000C12F2200C701C601C2
:10187000C501C401CB01CA01C901C801903098005B
:101880008030990021001E169E161E139E171D14EF
:101890001E109E10003023008C0004308E002100AA
:1018A0001E109E101830F8001D08833978049D0022
:1018B00001302200D00080312000AB21883122008D
:1018C000CD01CC014D083902031C352D031D6C2CB4
:1018D00038084C020318352D21009D149D186E2CDC
:1018E0001C08FA001B082200BA007A08BB003B085B
:1018F000D1003A08D0008031200039268831831485
:101900007A082200E7007908E6007808E500770801
:10191000E4002D08EB002C08EA002B08E9002A0857
:10192000E800200000207A082200D3007908D200C5
:101930007808D1007708D0005308E7005208E60085
:101940005108E5005008E400EB01EA01E9018930A3
:10195000E8008031200099268831831022002D086C
:10196000E7002C08E6002B08E5002A08E4007A08C6
:10197000EB007908EA007808E9007708E800200021
:1019800000207A082200AD007908AC007808AB008E
:101990007708AA003B08D1003A08D0008031200027
:1019A0003926883183147A082200E7007908E60096
:1019B0007808E5007708E4002D08EB002C08EA0021
:1019C0002B08E9002A08E800200000207A082200FD
:1019D000BF007908BE007808BD007708BC003F084A
:1019E000D3003E08D2003D08D1003C08D0003F089B
:1019F000D7003E08D6003D08D5003C08D4002000A2
:101A00007B217A082200C3007908C2007808C1004F
:101A10007708C00083104708E7004608E60045083D
:101A2000E5004408E4004308EB004208EA004108EE
:101A3000E9004008E800200000207A082200C700E2
:101A40007908C6007808C5007708C4000230D000C5
:101A5000FA30D10080312000752488312200D00B6B
:101A6000282DCC0A0319CD0A622C3908D100380878
:101A7000D000803120003926883122004708E70055
:101A80004608E6004508E5004408E4007A08EB0053
:101A90007908EA007808E9007708E800803120003A
:101AA000992688317A082200D3007908D200780874
:101AB000D1007708D0005308D7005208D60051084B
:101AC000D5005008D4005708E7005608E60055082E
:101AD000E5005408E400EB01EA01E901E801803186
:101AE0002000582688310318772D031D7C2DF7011F
:101AF000F801F901FA01002E22005708DB00560810
:101B0000DA005508D9005408D8002030E100D83058
:101B1000E00060088400610885000008E701E60035
:101B20007F30E6070030E73D0310670CFA00660CD3
:101B3000F900E600610885006008840066088000FE
:101B40005B08DF005A08DE005908DD005808DC0099
:101B50005708E7005608E6005508E5005408E40079
:101B60005B08EB005A08EA005908E9005808E80049
:101B70008031200099268831831022005B08E7001D
:101B80005A08E6005908E5005808E4007A08EB0016
:101B90007908EA007808E9007708E80020000020CA
:101BA0007A082200DB007908DA007808D900770883
:101BB000D800600884006108850080035F08E700A2
:101BC0005E08E6005D08E5005C08E4005B08EB00E9
:101BD0005A08EA005908E9005808E8008031200056
:101BE000582688310319F62D2200A02D22005C080A
:101BF000F7005D08F8005E08F9005F08FA002000B1
:101C00007A082200CB007908CA007808C900770852
:101C1000C8004B08D3004A08D2004908D100480840
:101C2000D000803120009327883179088831D82F5F
:101C300055303C008F00AA308F000F101030A000EC
:101C40001130A10010303D00A0001130A10055302E
:101C50003C008F00AA308F000F14F0302100990053
:101C60000E1222000E16200024106230A5000B3048
:101C7000A60021000E148E1424001710971097113F
:101C8000C0309200FF30930036309500161496173E
:101C90002000EC010430ED00EF01EE012100A10174
:101CA000A0010C30F000200024112100A301A201AA
:101CB0002000A4112100A501A401A901A801A701E8
:101CC000A601AD01AC01AB01AA01B101B001AF01A8
:101CD0007F30AE000330F300F40120002412FB013A
:101CE0002200AD01AC01AB018830AA0023008C01B9
:101CF0008E0122009201910194019301842E4034BF
:101D000040342C34003400340E3085007F308400A1
:101D100085171200F700003A03199E2E1200F800F2
:101D2000F81B962E0F39870012008600781B1200D0
:101D3000781F12001E00F70B982E892EB301B201F6
:101D4000B60121009115C0308B0405302000AC0095
:101D500001302200D00080312000AB2188312200E8
:101D60003308FA003208B20A0319B30AB8007A0835
:101D7000B9003808F43C031DC62E390BC62E2100CD
:101D80008C12203022008C06B301B2012000241CEA
:101D9000A82E241021008C12203022008C06200056
:101DA0002D08F20072080B3C0319DA2E7208163C5B
:101DB000031D082F72080B3C031DE12E0B30A600FB
:101DC000E32E1630A6002100911101302200B80048
:101DD00080312000FB2188312100911572080B3CD5
:101DE000031DFA2E20002908B500B6012708B70008
:101DF000B80121007208163C031D092F20002A0893
:101E0000B500FA012908B6002808B7002708B8006D
:101E100021007208703C0319112F7208DE3C031D6B
:101E2000432F7208703C031D1A2F0B302000A600B0
:101E30001D2F210016302000A60021009111023034
:101E40002200B80080312000FB218831210091154B
:101E50007208703C031D342F20002908D200D301E2
:101E60002708D400D50121007208DE3C031D432F52
:101E700020002A08D200FA012908D3002808D4003B
:101E80002708D50021007208043C031D602F043090
:101E90002000ED002100911180312000992B883124
:101EA00079082200AF007808AE00210091152200C9
:101EB0002E082000B90022002F082000BA002100BF
:101EC0007208053C031D7D2F04302000ED00210029
:101ED000911180312000EB2B883179082200AF006E
:101EE0007808AE002100911522002E082000BB00CA
:101EF00022002F082000BC00210072080C3C031DAA
:101F0000972F803120003F2C88310C30F000803139
:101F10004E2C883179082200B1007808B0003008D2
:101F20002000BD00220031082000BE002100720800
:101F30000D3C031DB12F803120005A2C88310C300C
:101F4000F0008031692C883179082200B1007808CE
:101F5000B00030082000BF00220031082000C0007F
:101F6000210072080E3C031DBB2F80312000CC2DB8
:101F70008831F229210072080F3C031DCE2F20006A
:101F8000DF2B79082200B5007808B400340820005F
:101F9000B300220035082000B40021007208103C74
:101FA000031DE52F2200B901C830B8002000352CF0
:101FB00079082200B5007808B40034082000B10088
:101FC000220035082000B20021008C1220302200AF
:081FD0008C062000A82E63001E
:020000040001F9
:04000E00843FFB3AF6
:00000001FF
;PIC16F1705
;CRC=1E5C  CREATED="13-Jun-17 17:10"
