:10000000883168280000482CB7183110C432ED3709
:100010000D050000533A613974106937A01AA039F0
:10002000E531F3060A004937693AE930EC34FA342D
:10003000EE33203AE832A039E330EC320D0500010E
:10004000C634F2397410F2326132A030F632F23036
:10005000E732A01EA0124C320D050000E7327410EA
:100060007537693A73103D1025330D05003D6F3328
:10007000F33274103D1025330D050001F232613268
:10008000A030F632F230E732A01EA0124C320D053D
:10009000000021000E1222000E120830F800502835
:1000A0000000F8176328F8132000C00C2200031882
:1000B0000E16031C0E12781763287813F80B5428B9
:1000C000612800000E1610308400840B65280000A3
:1000D000F81B5328781B5D28200008000B088B13A1
:1000E00023009517151400000000891B8B171308B7
:1000F0007F390319B6282000B10023001108200021
:10010000B200230012082000B3003108C0004920CB
:1001100032082300910020003308230092000B08CE
:100120008B139517151400000000891B8B17130DF6
:10013000140D7F390319B6282000B10023001108DF
:100140002000B200230012082000B3003108C000D4
:100150004920320823009100200033082300920038
:10016000910A0319920A20006E282300200008003B
:10017000203085001130840000080319CC280A3093
:10018000F800F701F70BC228F80BC1285F30F70021
:10019000F70BC828800BBF2808006430C600023067
:1001A000C602031CE02820308500263084000008A9
:1001B0000319E028DE28DC28DD280000800BDB287E
:1001C000080021008C1022008C140230F700F70B7D
:1001D000E728000021008C1022008C100230F7006C
:1001E000F70BF028000020000800C301C201C10184
:1001F000C00121000C14003020000C1C0130F8005C
:10020000F808031D0529CD20F9281830C400C408BA
:1002100003194C29E12021000C1420000C1C2B296F
:1002200001304402C600FA01F901F8010130F7007B
:100230004608C70003192229F735F80DF90DFA0D04
:10024000C70B1C297708C0047808C1047908C204C8
:100250007A08C3044A2901304402C600FA01F901B0
:10026000F8010130F7004608C70003193D29F735AA
:10027000F80DF90DFA0DC70B3729FF30F706F80610
:10028000F906FA067708C0057808C1057908C2059D
:100290007A08C305C4030729C401200844020318CF
:1002A0005429E120C40A4D29C21F5829FF30C30434
:1002B0004008F7004108F8004208F9004308FA0036
:1002C00008003008B1003108803A03196E29C03A9D
:1002D00003197129603A0319742976290130A000A5
:1002E00076290330A00076290230A00022008C106D
:1002F00021008C102000F5208831B7283308A80091
:100300003208A7003108A6003008A5008831C128AE
:10031000BE01BD01BC01BB01BF013A083F02031889
:100320009D29F5207708BB077808BC3D7908BD3DBD
:100330007A08BE3DCD20BF0A8D2983103E08C30038
:100340003D08C2003C08C1003B08C000C701C6010F
:10035000C5013A08C4008318B129203085002C302B
:100360008400430847068039D100C31FC229C00951
:10037000C109C209C309C00A0319C10A0319C20A83
:100380000319C30AC71FCF29C409C509C609C7096C
:10039000C40A0319C50A0319C60A0319C70AF701D3
:1003A000F801F901FA01CC01CD01CE01CF014708D6
:1003B00046044504440403190D2A2030D0000310DC
:1003C000C00DC10DC20DC30DCC0DCD0DCE0DCF0D89
:1003D00047084F02031DF62946084E02031DF62961
:1003E00045084D02031DF62944084C02031C072A48
:1003F0004408CC024508031C450FCD024608031CE7
:10040000460FCE024708031C470FCF020314F70D17
:10041000F80DF90DFA0DD00BDF29D11F1A2AF709B3
:10042000F809F909FA09F70A0319F80A0319F90A88
:100430000319FA0A4C0880004D08813F4E08823F9C
:100440004F08833F08000B088B13230095171514E2
:1004500000000000891B8B170318542A13087F39EA
:100460002000B700230011082000B8002300120864
:100470002000B9003708C000492038082300910047
:1004800020003908230092000B088B1395171514D0
:1004900000000000891B8B172000B40B502A522A41
:1004A0002300542A722A2300130D140D7F392000D3
:1004B000B700230011082000B80023001208200014
:1004C000B9003708C00049203808230091002000F7
:1004D000390823009200910A0319920A03102000A0
:1004E000B40B232A08008318792A2030850028308D
:1004F0008400F701F801F901FA01C801C901CA0134
:10050000CB0147084604450444040319B72A2030A8
:10051000CC000310C00DC10DC20DC30DC80DC90D17
:10052000CA0DCB0D47084B02031DA02A46084A02FC
:10053000031DA02A45084902031DA02A44084802B9
:10054000031CB12A4408C8024508031C450FC90210
:100550004608031C460FCA024708031C470FCB027C
:100560000314F70DF80DF90DFA0DCC0B892A480884
:1005700080004908813F4A08823F4B08833F0800BA
:100580000408B800B71FD12AB803B816B409B509D2
:10059000B609B709B40A0319B50A0319B60A03194B
:1005A000B70A3B30BF009A30BE00CA30BD00BC0164
:1005B0000A30BA00831420308500143084003708D4
:1005C000C3003608C2003508C1003408C0003F0827
:1005D000C7003E08C6003D08C5003C08C4007322A1
:1005E0007808F708031D072B3A08013A0319072B6F
:1005F00038080319092B0F393A020319012B031884
:10060000252BB81B252B381B092B2030212B203004
:10061000B805B81E142BB8127708B8002D30C000EA
:1006200049203808F700B8013030B81E212BB81225
:100630007708B8002D30C00049203808F700B8010D
:100640003030F7077708C000492083103F08C30007
:100650003E08C2003D08C1003C08C000C701C601F9
:10066000C5010A30C40073227A08BF007908BE00B1
:100670007808BD007708BC00BA0BDA2A0800B6304B
:10068000F700FA01F901F8014210C11F552B42147D
:10069000BE09BF09C009C109BE0A031D552BBF0A07
:1006A000031D552BC00A0319C10A3E083F0440042C
:1006B0004104031D5D2BF7016C2B0310F81B692B04
:1006C000BE0DBF0DC00DC10DFA0DF90DF80DF70BE4
:1006D0005D2BF8134218F81708003008BA0088217B
:1006E0007A08C1007908C0007808BF007708BE000A
:1006F0003F237A08B4007908B3007808B20077087D
:10070000B1003408B8003308B7003208B600310829
:10071000B5003808A4003708A3003608A200350841
:10072000A1008831F6283008B4003408BA008821C6
:100730007A08BD007908BC007808BB007708BA00C9
:100740003D08C1003C08C0003B08BF003A08BE009D
:100750003F230508BF000408BE0083147A08C300C5
:100760007908C2007808C1007708C0002408C700D3
:100770002308C6002208C5002108C4008030831861
:10078000C506CA01CB014108C9004508C906400891
:100790000319B12CC800F70044080319BA2CC80289
:1007A0000319552C031C122C4508CE00CE17460801
:1007B000CD004708CC00CB010310CE0CCD0CCC0CE7
:1007C000CB0CC80BDB2BC91FE82B4A14CE2C4A10CC
:1007D00048104A162030850023308400E32C4A124A
:1007E000C91BFC2B481C072CCE0CCD0CCC0CCB0C05
:1007F000F70A0319C92C072CCE1B0A2C0310CB0DAA
:10080000CC0DCD0DCE0DF7030319C92CFC2B4A17C7
:10081000762C4A134108C900C91F102CCE17C22CD0
:10082000CE13C22C4408C800F7004008C802410893
:10083000CE00CE174208CD004308CC00CB010310F8
:10084000CE0CCD0CCC0CCB0CC80B1E2CC91F2B2CEA
:10085000CA14CE2CCA104810CA1620308500273082
:100860008400E32CCA12C91B3F2C481C4A2CCE0C16
:10087000CD0CCC0CCB0CF70A0319C92C4A2CCE1B7F
:100880004D2C0310CB0DCC0DCD0DCE0DF703031960
:10089000C92C3F2CCA17762CCA134508C900C91F9A
:1008A000532CCE17C22CCE13C22C4508CE00CE1727
:1008B0004608CD004708CC00C91F622CCE134A154C
:1008C000CE2C4A11CB014810203085002330840003
:1008D000E32CC91B8C2C4108C900481C762CCE0C7B
:1008E000CD0CCC0CCB0CF70A0319C92CCB1F872CD1
:1008F000CC0A031D872CCD0A031D872CCE0A031DAD
:10090000872CCE0CCD0CCC0CF70A0319C92C4A1B32
:10091000092CCA1B4C2CAB2C8030CE06CE1F942C3D
:10092000CE2C4508C900A12C4108C900CE08031DE2
:10093000A12CCD08031DA12CCC08031DA12CF7016F
:10094000C22CCE1BAB2C0310CB0DCC0DCD0DCE0D80
:10095000F70BA12CC92CC91FAF2CCE17C22CCE135C
:10096000C22C4408F7004508CE004608CD004708D1
:10097000CC00C22C4008F7004108CE004208CD0050
:100980004308CC004E08F8004D08F9004C08FA0066
:10099000FF2CF701F801F901FA01FF2CCB01CC097A
:1009A000CD09CE09CB09CB0A031DDC2CCC0A031DD3
:1009B000DC2CCD0A0319CE0A4A18E72BCA182A2CB8
:1009C0004A19612C912C0008CC07031CED2CCD0A90
:1009D000031DED2CCE0A031948141100CD07031C8A
:1009E000F42CCE0A031948141100801F803ACE0758
:1009F000031848144A1AEF2BCA1A322C692C3F08E4
:100A000085003E0884007A08B7007908B6007808A7
:100A1000B5007708B4003708BB003608BA003508BF
:100A2000B9003408B8002808BF002708BE0026080F
:100A3000BD002508BC0038080319E02DC4003C089F
:100A40000319E02DC402031C2A2D7F30C4070318AC
:100A5000E02D302D8130C402031CE02D0319E02D60
:100A60004408F700F801F901FA01C3013908C2008E
:100A7000C2173A08C1003B08C0001930C4003F0843
:100A8000C0020318532D0130C1020318532DC202B6
:100A90000318532DC3020318532DC30AC20AC10AF7
:100AA0003F08C007852D3E08C10203186E2D013096
:100AB000C20203186E2DC30203186E2DC30AC20AA8
:100AC0003E08C1073F08C007031C852DC10A031D4E
:100AD000852DC20A031D852DC30A852D3D0880384A
:100AE000C2020318842D0130C3020318842DC30AE7
:100AF0003D088038C2073E08C107031C622DC20AA8
:100B0000031D622DC30A622D7A14C40B882D932D08
:100B10000310C00DC10DC20DC30D0310FA0DF90D68
:100B2000F80DC50D3F2D451C9B2D0310F80CF90C3D
:100B3000FA0CC50C9E2DF7030319E02DC51BC72D1C
:100B40000310C00DC10DC20DC30D3F08C002031834
:100B5000B32D0130C1020318B32DC2020318B32D07
:100B6000C302031CD62D3E08C1020318BE2D01305E
:100B7000C2020318BE2DC302031CD62D3D088038C7
:100B8000C2020318C72D0130C302031CD62DFA0A76
:100B9000031DD62DF90A031DD62DF80A031DD62DE7
:100BA000F70A0319E02DF80CF90CFA0C3908C40007
:100BB0003D08C406C41FDE2DF817E42DF813E42DFC
:100BC000F701F801F901FA018831FB2840080319FF
:100BD000562EC80044080319562EC8070318F72DCF
:100BE0007F30C802031C562E0319562EFB2D813070
:100BF000C8070318562E4808F700F801F901FA0152
:100C00004108CC00CC174208CB004308CA0018307A
:100C1000C800C9014A1C242E4708FA07031C162ED7
:100C2000F90A031D162EF80A0319C9174608F90711
:100C3000031C1D2EF80A0319C9174508C200C21764
:100C40004208F8070318C917C90DF80CF90CFA0C7B
:100C5000CC0CCB0CCA0C0310C80B092E0130F707C3
:100C60000318562EF81B3B2ECC0DFA0DF90DF80D7E
:100C7000F7030319562ECC1F4C2EFA0A031D4C2ED7
:100C8000F90A031D4C2EF80A031D4C2EF80CF90C22
:100C9000FA0CF70A0319562E4108C9004508C9067F
:100CA000C91F542EF8175A2EF8135A2EF701F801BF
:100CB000F901FA0108000408B8003408BA00031961
:100CC0007A2E3308C3003208C2003108C100300850
:100CD000C000C701C6012030C5008230C400E6252F
:100CE0007A08B3007908B2007808B1007708B0003C
:100CF000BA0B612E3308C3003208C2003108C100AC
:100D00003008C0004008B63CC000FA014108C400E9
:100D1000C1170310C10CC20CC30CFA0CF90CF80C6F
:100D2000F70CC00B892EC41FA02EF709F809F9098A
:100D3000FA09F70A0319F80A0319F90A0319FA0A52
:100D40007A08B3007908B2007808B1007708B000DB
:100D5000B31FB72EB803B816B009B109B209B30969
:100D6000B00A0319B10A0319B20A0319B30A3B30D6
:100D7000BF009A30BE00CA30BD00BC010A30BA00C4
:100D800034080319B80A8314203085001030840019
:100D90003308C3003208C2003108C1003008C00067
:100DA0003F08C7003E08C6003D08C5003C08C40017
:100DB00073227808F708031DF02E340A3A0203194B
:100DC000F02E38080319F22E0F393A020319EA2ED1
:100DD0000318222FB81B222F381BF22E20301E2F73
:100DE0002030B805B81E002FB8123408031DB80310
:100DF0007708B8002D30C00049203808F700B80146
:100E000034083A02031D0E2F7708B8002E30C000B8
:100E100049203808F7002030B80500303030B81EBF
:100E20001E2FB8123408031DB8037708B8002D3000
:100E3000C00049203808F700B8013030F7077708BC
:100E4000C000492083103F08C3003E08C2003D088F
:100E5000C1003C08C000C701C601C5010A30C4007A
:100E600073227A08BF007908BE007808BD007708B1
:100E7000BC00BA0BC32E08008E30F7003108F70211
:100E80003208F9003308F800F917F7080319532F4F
:100E90000310F908031D4F2FF8080319532FF90CFD
:100EA000F80CF70B482FB21F5A2FF809F909F80A66
:100EB0000319F90A0800F801F901F701FA013608E7
:100EC000031D652F350803197F2F1030B70003105D
:100ED000B30DB40DF70DFA0D36087A02031D722F0B
:100EE00035087702031C7B2F3508F702031CFA0331
:100EF0003608FA020314F80DF90DB70B672F883185
:100F00005F293608F80135020318892F3508F700E4
:100F1000952FF7010830B700B50DF70D36087702A9
:100F20000318F700F80DB70B8C2F0800780833086A
:100F3000B5006430B60081277708B30078083030F8
:100F4000031DA92FB41CB02FB419B02F341A2030B0
:100F5000AC2FB41134123414F8077808C0004920BB
:100F60003308B5000A30B60081277708B300780847
:100F70003030031DC12FB419C52F341CC52F341AAE
:100F80002030F8077808C00049203030B307330814
:080F9000C000492088316A29E4
:101000000508BE000408BD00340EF038B900B90769
:10101000E23EBA00323EBC0034080F39BA07BA07C4
:10102000BC07E93EBB00BB07BB07330E0F39BB074C
:10103000BC07BB0DBC0DBC09BC0D33080F39BC0788
:10104000B90D0730B8000A30BC07BB03031C2428C5
:10105000BB07BA03031C2828BA07B903031C2C28B2
:10106000B907B803031C30282030850018308400ED
:1010700007303D053D1384070030853D04081C3CC6
:10108000031D46280508203C03193D170008F700FA
:10109000031D52283D1B52283D1A6328BD195228B2
:1010A00020305528BD153D123030F7070508B40033
:1010B0000408B3007708C000803149208831340823
:1010C00085003308840001313D1F3E288831812985
:1010D000F030210099000E1222000E164030200040
:1010E000A000A401A301A201A101A8017430A700DE
:1010F0003D30A6008C30A500AA01A90123008C0177
:101100008E0122009201910194019301033023008A
:10111000910000309200803120006E20883108302C
:10112000B000FA30B1008031B8208831B00B91287E
:101130000A302300910000309200803120006E20A0
:1011400088311430B000FA30B1008031B8208831D5
:10115000B00BA3281330230091000030920080319F
:1011600020006E2088314030B00080316129883104
:10117000B3017430B2003D30B1008C30B00080312A
:101180007E2988310A30BA008031882188317A0876
:10119000B3007908B2007808B1007708B0002030B9
:1011A0002300910000309200031015302000B4009D
:1011B000803123228831413084003308B70032085F
:1011C000B6003108B5003008B4008031C022883143
:1011D0000D30C0008031492088310A30C000803194
:1011E000492088310A30B00080316D2B88310A30B7
:1011F000B0008031932B88317A08AE007908AD00B9
:101200007808AC007708AB002E3023009100003046
:10121000920003100C302000B4008031232288316A
:10122000893084002E08B3002D08B2002C08B100CC
:101230002B08B0000230B40080315B2688310D30BD
:10124000C0008031492088310A30C00080314920F7
:1012500088312E08B4002D08B3002C08B2002B08EA
:10126000B10080313C2788317808B0002E08C300D7
:101270002D08C2002C08C1002B08C000C701C60100
:101280002030C5008230C4008031E62588317A08DC
:10129000B4007908B3007808B2007708B100803153
:1012A0003C2788317908B2007808B1007908B40089
:1012B0007808B300B6010A30B50080315B2F883161
:1012C0007708B1007A08B2003008B3001B30B400D0
:1012D0008031962F88312030C000803149208831FC
:1012E0002D30C0008031492088312030C00080314D
:1012F00049208831103084003208B4003108B3002E
:1013000000280D30C0008031492088310A30C000EB
:10131000803149208831373023009100003092001D
:10132000031008302000B400803123228831893036
:1013300084002408B3002308B2002208B100210869
:10134000B0000230B40080315B2688310D30C0001F
:101350008031492088310A30C000803149208831ED
:101360000A30BA008031882188317A08B3007908C0
:10137000B2007808B1007708B0003E302300910039
:101380000030920003100F302000B400803123227F
:101390008831413084003308B7003208B600310884
:1013A000B5003008B4008031C02288310D30C00053
:1013B0008031492088310A30C0008031492088318D
:1013C0000430B000FA30B1008031B8208831B00B61
:0613D000E229F72863008A
:020000040001F9
:04000E00843FFB3AF6
:00000001FF
;PIC16F1705
;CRC=5168  CREATED="14-Jun-17 17:41"
